:400000000080002011000000550800005508000080B500AF024A034B1B68136000F04CFCBC760040FA46004010B5054C237833B9044B13B10448AFF300800123237010BD15
:400040004881FF1F000000008C2F0000084B10B51BB108490848AFF300800848036803B910BD074B002BFBD0BDE81040184700BF000000004C81FF1F8C2F0000C880FF1F8C
:400080000000000090B59BB000AF0023BB800123FB80002387F857300023A7F85430002387F8533000233B6600F0F2FD01F0B6F901F054FD02F08EF9012002F0A1FA0023A1
:4000C00087F86630002387F86530002387F86430002387F8673000F0F3FDA64801F03CFA62B60023A7F85E300023BB650023A7F850300023A7F84E3001F0F2F9034687F87F
:400100004D3097F84D30582B21D0582B0BDC432B15D0432B02DC002B21D021E0452B1AD0532B10D01CE0652B15D0652B02DC632B05D015E0732B06D0782B08D010E00123AA
:4001400087F865300CE0012387F8663008E0002387F8663004E0012387F8643000E000BF854B1B78DBB2002B00F0C280824B00221A70B7F85E300133A7F85E3000F0D6FD45
:400180000346184600F010FE03461A46BB6D1344BB6502F087F902F099F902F0E9F9002002F02EFA3B1D0221184602F0C3F902F06BF90346184600F0F7FD03469BB203F558
:4001C000DE437833A7F85430012002F019FAB7F854303A6E13443B66B7F85E3042F20F72934240F28580BB6D644AA2FB03235B0BA7F850303B6E614AA2FB03235B0BA7F8DF
:400200004E30B7F8502007F108035D49184602F099FA07F10803184601F09EF9B7F85030584AA2FB0323DB089BB21C46B7F85020544BA3FB0213D9080B469B000B445B009E
:40024000D31A9BB207F1080022464F4902F07AFA07F10803184601F07FF90023A7F85E300023BB6502F03EF800214D2001F090FE002001F08FFF034687F8533001214D20D3
:4002800001F0F2FE002001F0D5FF034687F8573001F048FF97F8572007F108033B49184602F050FA07F10803184601F055F9B7F84E30344AA2FB0323DB089BB21C46B7F87B
:4002C0005020304BA3FB0213D9080B469B000B445B00D31A9BB207F1080022462C4902F031FA07F10803184601F036F900233B66012000F0F5FC0346002B3FF4FDAE00F02C
:4003000015FD0346184600F04FFD0346BB6497F86530002B03D197F86630002B0FD007F10803BA6C1B49184602F00CFA07F10803184601F011F9002387F8653019E097F810
:400340006430002B3FF4D8AE97F8672007F108031149184602F0F6F907F10803184601F0FBF897F86730013387F86730002387F86430C1E6902F00006481FF1F5917B7D107
:40038000A02F0000CDCCCCCCC42F0000E82F0000083000002C3000004030000080B582B000AF786039603A680021786802F0C1F900BF0837BD4680BD80B584B000AFF860AB
:4003C000B9607A607A68B968F86802F0A7F900BF1037BD4680BD00BF80B483B000AF0346FB71FEE780B487B000AF7860396000233B6100237B6127E07B699B007A68134458
:400400001B68BB60BB68FB73BB6823F0FF03BB6014E03B695B003A6813441B781A46BB68134419463B695B003A6813445B780B703B6901333B61FB7B013BFB73FB7B002B07
:40044000E7D17B6901337B617B69222BD4D900BF1C37BD4680BC704780B582B000AF464B00221A80454B50221A70454B09221A80444B18221A70444B0E221A80434B182232
:400480001A70434B4FF49C721A80424B18221A70042241494148FFF78FFF414B02221A704FF0402308221A703E4B03221A703E4B3E4A1278D2B21A703D4B08221A803D4BE6
:4004C00041F251221A800023FB7019237B6014E0FB785B00DAB2384B1B78DBB203F00103DBB21343DBB203F00303FB704FF4F07002F0BEF87B68013B7B607B68002B02D036
:40050000FB78032BE4D17B68002B02D10320FFF763FF2A4B4FF480721A80284B07221A70274B00221A70274B48221A70234B00221A70254B02221A70244B04221A70244A56
:40054000234B1B78DBB243F00F03DBB21370214A204B1B78DBB243F00103DBB213701E4A1D4B1B78DBB263F07F03DBB2137000BF0837BD4680BD00BF804000408240004087
:400580008440004086400040884000408A4000408C4000408E400040500B0048004100400043004000420040A14600400801004922420040204200402542004004400040F2
:4005C0000640004008400040014000400B400040A2430040A1430040A043004080B483B000AF0E4B1B78FB710D4AFB7903F00703DBB213700B4AFB791B09DBB213700A4BDD
:4006000001221A70094B10221A70094B44221A7000BF0C37BD4680BC704700BFCF0100496E5800406F5800400D510040005B00407658004080B483B000AF0346FB71FB7956
:40064000012B0ED8FB79094A52F82330FA79074951F822201178FA790548825C0A43D2B21A7000BF0C37BD4680BC7047583000006030000080B483B000AF0346FB71FB79E5
:40068000012B10D8FB790A4A52F82330FA79084951F822201178FA790648825CD243D2B20A40D2B21A7000BF0C37BD4680BC7047583000006030000080B586B000AF72B607
:4006C0004F4A4F4B1B78DBB243F00403DBB213700023FB7513E0FA7D13465B0013445B00484A13443B613B691A683B699B889BB219461046FFF752FEFB7D0133FB75FB7DAC
:40070000062BE8D90023FB751CE0FA7D13469B0013445B003C4A1344FB60FB681B68BB60FB685B687B60FB681A7A5B7A1B0213437B807B881A467968B868FFF73DFEFB7D9A
:400740000133FB75FB7D012BDFD930494FF09040FFF748FE2E4B0A221A702E4A2D4B1B78DBB243F00203DBB213702B4A2A4B1B78DBB243F00203DBB21370284A274B1B7865
:40078000DBB243F04003DBB21370254A244B1B78DBB243F01003DBB21370082221492248FFF70AFE0A2221492148FFF705FE082220492148FFF700FE0A2220492048FFF7FB
:4007C000FBFD204A1F4B1B78DBB243F00803DBB213701D4B60221A70FFF73EFE1A4B80221A701A4B01221A70FFF7F8FE0E220B491748FFF7E1FD00BF1837BD4680BD00BFC6
:40080000E846004064300000903000008C000048835800400350014013500140A0430040C2430040280B004802510040300B0048C05100403C0B004812510040440B0048BC
:4008400020510040224300400048004004000840B043004080B500AF01F034FF03461B680C2B00D1FEE7FEE780B584B000AF78600F4B1A687B6813441A460E4BD31A802B1E
:4008800009DC0B4B1B68FB60094B1A687B681344074A136007E001F015FF02460C2313604FF0FF33FB60FB6818461037BD4680BDCC80FF1FB081FF1F80B586B000AF224B21
:4008C0007B61224B3B61204B7B6135E03B691B68FB603B695B68BB603B699B683B6000237B600CE0FB681A68BB681A60BB680433BB60FB680433FB607B6804337B607A68C4
:400900003B689A42EED13B69DB683B6000237B6008E0BB6800221A60BB680433BB607B6804337B607A683B689A42F2D13B6910333B617B69013B7B617B69002BC6D101F0AE
:40094000C7FEFFF79FFBFEE7010000000031000080B582B000AF184B184A1A60184A184B1B6843F40073136000237B600FE07B68032B04D8134A7B6852F8233000E0124B5D
:4009800012497A6841F822307B6801337B607B682F2BECD90E4B1B78DAB20E4B1A700E4B0A4A1A60FFF788FE0C4B00221A6000BF0837BD4680BD00BF0CED00E00004FA05B1
:4009C00014ED00E000000000550800000080FF1FBC760040C480FF1F08ED00E0C080FF1F80B582B002AF414B01221A70404B00221A70102000F0BEFE102000F0A1FF0721C8
:400A00001D2001F027F83B4B04221A703A4B00221A703A4B00221A70394A394B1B78DBB243F01803DBB21370364B00221A70364B00221A70354B00221A70354B0A221A7090
:400A4000344B00221A70344B00221A70334B12221A70334B13221A70324B00221A70324B14221A70012300930C234FF400424FF40041032000F0BEFB0223009310234FF458
:400A8000004249F2DA01002000F0B4FB0323009310234FF4004249F2DA01002000F0AAFB0423009310234FF4004249F2DA01002000F0A0FB1D4A0D4B1B78DBB2013B1C4930
:400AC0009B000B449B7813701A4A084B1B78DBB2013B174931F823301380044B1B78DBB2184600F07FF900BFBD4680BDD080FF1F6881FF1F96580040975800409E580040B8
:400B0000075B004093580040885B0040895B004080580040815800408358004088580040895800408D580040014E00400E4E00407081FF1F0C4E004080B582B000AF01F014
:400B4000B6FD0346FB71444B1B78BB71434A434B1B78DBB243F00103DBB213703F4A3F4B1B78DBB243F01003DBB213703C4A3C4B1B78DBB243F00103DBB21370384A384B3B
:400B80001B78DBB243F01003DBB21370354A354B1B78DBB243F00203DBB21370324A324B1B78DBB243F00203DBB213702F4A2F4B1B78DBB243F00303DBB21370032000F088
:400BC0000DFF284A274B1B78DBB223F00203DBB21370254A244B1B78DBB223F00203DBB21370234A224B1B78DBB243F00603DBB21370204B7A221A701F4A1F4B1B78DBB2CD
:400C000043F00103DBB213701C4A1C4B1B78DBB243F00103DBB21370194A194B1B78DBB243F00103DBB21370164A164B1B78DBB243F00103DBB21370134B4FF000521A607A
:400C4000124B4FF000521A60FB79184601F033FD00BF0837BD4680BDD080FF1FAA430040BA430040F8460040F9460040915800407758004082580040A1430040B14300405C
:400C8000A2430040B243004080E200E000E100E080B500AF084B1B78002B09D1074B1B78DBB2002B01D1FFF79BFE034B01221A70FFF742FF00BF80BD6A81FF1F6B81FF1FC9
:400CC00080B400AF054A054B1B78DBB243F00103DBB2137000BFBD4680BC7047004E004080B485B000AF0346FB710D4B1B78DBB2002B03D00B4B1B78FB7305E00A4B1B7861
:400D0000DBB203F00103FB73FB7B012B02D0FB79002BEAD0FB7B18461437BD4680BC70476981FF1F6881FF1F014E004080B483B000AF174B1B78DBB203F003037B717B79D0
:400D4000012B03D8134B1B88FB8011E0114B1B78DBB2FB80104B1B78DBB29BB21B029AB2FB881343FB807B79032B01D10B4B1B780B4B1B78DBB2002B02D00A4B00221A7032
:400D8000B7F9063018460C37BD4680BC704700BF144E0040104E0040114E0040124E00406981FF1F6881FF1F80B485B000AF78600A4B1B687A68D31A7B607B684FF47A72E5
:400DC00002FB03F2064B1B6892FBF3F3FB81B7F90E3018461437BD4680BC70476C81FF1F8C81FF1F80B582B000AF0346FB71C34B00221A70FB79012B66D1C14B38221A702F
:400E0000C04B06221A70C04B08221A70BF4B00221A70BF4B00221A70BE4B1F221A70BE4B00221A70BD4B00221A70BD4B00221A70BC4B01221A70BC4B14221A70BB4B042232
:400E40001A70BB4B18221A70BA4B00221A70BA4B11221A70B94B12221A70B94B00221A70B84B01221A70B84B11221A70B74B19221A70B74B97221A70442000F073FAB54BFC
:400E800058221A70B44B00221A70B44B05221A70B34B02221A70B34B00221A70B24B00221A70002000F094FBB04B40F29B221A600121052000F0A0FB01214A2000F082FC05
:400EC000AB491D2000F09EFDFB79022B66D18C4B38221A708B4B04221A708B4B06221A708A4B00221A708A4B00221A70894B3F221A70894B00221A70884B00221A70884B02
:400F000000221A70874B01221A70874B50221A70864B27221A70864B2C221A70854B00221A70854B55221A70844B5A221A70844B05221A70834B01221A70834B11221A70C3
:400F4000824B19221A70824B97221A70442000F009FA804B58221A707F4B00221A707F4B05221A707E4B02221A707E4B00221A707D4B00221A70002000F02AFB7B4B4FF41A
:400F80007A421A600121052000F036FB0121252000F018FC77491D2000F034FDFB79032B66D1574B38221A70564B04221A70564B06221A70554B00221A70554B00221A706F
:400FC000544B3F221A70544B00221A70534B00221A70534B00221A70524B01221A70524B50221A70514B27221A70514B2C221A70504B00221A70504B55221A704F4B5A22C9
:401000001A704F4B05221A704E4B01221A704E4B11221A704D4B19221A704D4B97221A70442000F09FF94B4B58221A704A4B00221A704A4B05221A70494B02221A70494B24
:4010400000221A70484B00221A70002000F0C0FA464B4FF47A421A600121052000F0CCFA0121252000F0AEFB43491D2000F0CAFCFB79042B40F0A980214B38221A70214B7D
:4010800004221A70204B06221A70204B00221A701F4B00221A701F4B3F221A701E4B00221A701E4B00221A701D4B00221A701D4B01221A701C4B50221A701C4B27221A70F1
:4010C0001B4B2C221A701B4B00221A701A4B55221A701A4B5A221A70194B05221A70194B01221A70184B11221A70184B19221A70174B97221A70442040E000BF6981FF1F71
:40110000004E0040024E0040034E0040044E0040054E0040064E0040084E0040094E00400A4E0040144E0040845800408558004086580040875800408A5800408B58004025
:401140008C5800408E5800408F580040905800409158004094580040955800409A5800409B5800409C5800409D5800408C81FF1FE1130000F91300000514000000F0F2F868
:40118000144B58221A70144B00221A70134B05221A70134B02221A70124B00221A70124B00221A70002000F013FA104B4FF47A421A600121052000F01FFA0121252000F0FC
:4011C00001FB0B491D2000F01DFC00BF0837BD4680BD00BF94580040955800409A5800409B5800409C5800409D5800408C81FF1F1114000090B587B000AF044608461146CB
:401200001A462346FB710346BB800B467B801346BB7197F82830002B00F08B8097F82830042B00F28680FB79013B092B4AD801A252F823F05D120000C5120000C5120000E6
:401240005D120000C5120000C51200007712000091120000C5120000AB120000BB790F2B04D9374B1B78DBB2FB752EE0354B1B78DBB2FB7529E0BB790F2B04D9324B1B78B2
:40128000DBB2FB7521E0314B1B78DBB2FB751CE0BB790F2B04D92E4B1B78DBB2FB7514E02C4B1B78DBB2FB750FE0BB790F2B04D9294B1B78DBB2FB7507E0284B1B78DBB221
:4012C000FB7502E00023FB7500BFBA8897F917305B0113443B617B883A6902FB03F3FB60FB68DB0BBB82BB790D2B12D8BA8ABB79C3F10E0342FA03F3BB8297F82830013B43
:40130000BA790132D1B2164A9B0013440A469A7007E097F82830013B114A9B0013440F229A7097F82830013B0D49BA8A21F8232002E0002000F046FB00BF1C37BD4690BDD8
:40134000180100491C010049190100491D0100491A0100491E0100491B0100491F0100497081FF1F80B584B000AF0346FB7101F09EF90346FB73174A164B1B78DBB243F011
:401380000303DBB21370144A134B1B78DBB243F00303DBB21370114AFB791370032000F01DFB0C4A0B4B1B78DBB223F00303DBB21370094A084B1B78DBB223F00303DBB214
:4013C0001370FB7B184601F076F900BF1037BD4680BD00BFF8460040F94600409258004080B400AF034B01221A7000BFBD4680BC704700BF6481FF1F80B400AF00BFBD4610
:4014000080BC704780B400AF00BFBD4680BC704780B400AF00BFBD4680BC704780B500AF064B1B78002B04D100F00AF8034B01221A7000F025F800BF80BD00BF8081FF1FED
:4014400080B400AF094B72221A70094B20221A70084B06221A70084B47221A70074B00221A7000BFBD4680BC704700BF896400408464004027650040376500408564004014
:4014800080B582B000AF01F012F90346FB71114A104B1B78DBB243F02003DBB213700E4A0D4B1B78DBB243F01003DBB213700B4A0A4B1B78DBB243F01003DBB2137000F0F3
:4014C00067FAFB79184601F0F6F800BF0837BD4680BD00BF99640040946400409564004080B483B000AF0023FB710C4B1B78BB71BB7903F02003002B09D0094B1B78FB71D3
:40150000BB7903F01E03002B01D00023FB71FB7918460C37BD4680BC704700BF646400404965004080B483B000AF0346FB7100BF074B1B78DBB203F00403002BF8D1054ADF
:40154000FB79137000BF0C37BD4680BC704700BF656400404564004080B584B000AF78600023FB810C4B1B78002B10D009E0FB897A6813441B781846FFF7D4FFFB8901332F
:40158000FB81FB897A6813441B78002BEFD100BF1037BD4680BD00BF8081FF1F80B582B000AF0023FB7106E0FB791846FFF762F8FB790133FB71FB79012BF5D9034BFF22B2
:4015C0001A7000BF0837BD4680BD00BFD180FF1F80B582B000AF0346FB71FFF7DFFFFB791846FFF727F8034AFB79137000BF0837BD4680BDD180FF1F80B584B000AF03461D
:401600000A46FB8013467B7100F0CEF80346FB7300F0A4F80346BB81FA88BB899A4200F08880464B1B78DBB203F00103FB72FB7B002B20D1BB89002B02D0FB88002B1AD101
:40164000BB89002B0BD13E4AFB8813803D4A3D4B1B78DBB223F04003DBB2137069E0394A384B1B78DBB243F04003DBB21370344AFB8813805DE0FB7A002B33D0324B0022E4
:401680001A70324B01221A70314B00221A70314A304B1B78DBB203F07F03DBB21370294B1B78DBB203F00803002B02D0FB88002B18D1294ABB891380234B07221A7000BF63
:4016C000214B1B78DBB203F00103002BF8D11B4A1A4B1B78DBB223F00103DBB213701A4B00221A70154B1B78DBB203F00103002B13D0194AFB881380134A7B79002B01D006
:40170000032300E00123137000BF0F4B1B78DBB203F00103002BF8D10BE0094AFB8813800649064B1B78DAB2FB7A1343DBB20B70FFE700BF1037BD4680BD00BFA2430040E2
:401740008040004082400040014000401040004014400040084000400240004080B400AF034B1B889BB21846BD4680BC704700BF8040004080B483B000AF0346FB71094967
:40178000084B1B78DBB25AB297F9073023F007035BB213435BB2DBB20B7000BF0C37BD4680BC70478240004080B400AF044B1B78DBB203F00703DBB21846BD4680BC704724
:4017C0008240004080B584B000AF03460A46FB8013467B7100F0CEF80346FB7300F0A4F80346BB81FA88BB899A4200F08880464B1B78DBB203F00103FB72FB7B002B20D1B7
:40180000BB89002B02D0FB88002B1AD1BB89002B0BD13E4AFB8813803D4A3D4B1B78DBB223F04003DBB2137069E0394A384B1B78DBB243F04003DBB21370344AFB881380C7
:401840005DE0FB7A002B33D0324B00221A70324B01221A70314B00221A70314A304B1B78DBB203F07F03DBB21370294B1B78DBB203F00803002B02D0FB88002B18D1294AD9
:40188000BB891380234B07221A7000BF214B1B78DBB203F00103002BF8D11B4A1A4B1B78DBB223F00103DBB213701A4B00221A70154B1B78DBB203F00103002B13D0194AF0
:4018C000FB881380134A7B79002B01D0032300E00123137000BF0F4B1B78DBB203F00103002BF8D10BE0094AFB8813800649064B1B78DAB2FB7A1343DBB20B70FFE700BF29
:401900001037BD4680BD00BFA14300400041004002410040014000401440004010400040084000400240004080B400AF034B1B889BB21846BD4680BC704700BF00410040D5
:4019400080B483B000AF0346FB710949084B1B78DBB25AB297F9073023F007035BB213435BB2DBB20B7000BF0C37BD4680BC70470241004080B400AF044B1B78DBB203F0AF
:401980000703DBB21846BD4680BC70470241004080B400AF094A094B1B78DBB243F00803DBB21370064A064B1B78DBB243F00803DBB2137000BFBD4680BC7047A2430040D8
:4019C000B243004080B483B000AF0346FB7101BE00BF0C37BD4680BC704700BF80B582B000AF0346FB80FB88054A127802FB03F3184600F03DFE00BF0837BD4680BD00BFC2
:401A0000DC80FF1F80B584B000AF03463960FB710F4B1B68FB60FB791F2B02D90020FFF7D1FFFB7903F01F0310339B00FA6813441B68BB60FB7903F01F0310339B00FA6888
:401A400013443A681A60BB6818461037BD4680BD08ED00E080B582B000AF03460A46FB711346BB71BB79072B02D90020FFF7AAFFFB791F2B02D90020FFF7A4FFFB7903F0BD
:401A80001F0303F1604303F56443BA795201D2B21A7000BF0837BD4680BD00BF80B582B000AF1B4B00221A701A4B01221A7000F0FEFD0346FB71184A174B1B78DBB243F04C
:401AC0001003DBB21370FB79184600F0F4FD134B0F221A70124B08221A70124B01221A6007210020FFF7B6FF0F490020FFF78AFF0E4B10221A700E4B00221A700D4B00226E
:401B00001A700D4B00221A7000BF0837BD4680BD726400408364004093640040246500403465004080E100E0891B00009081FF1F9681FF1F9881FF1F9481FF1F80B400AF2D
:401B4000054A054B1B78DBB243F00203DBB2137000BFBD4680BC70477264004080B500AF074B1B78002B04D1FFF798FF044B01221A70FFF7E3FF034B01221A6000BF80BD82
:401B80008281FF1F00E100E080B582B000AFA64B1B78FB71A54B1B78DBB203F04003DBB2002B00F0CD81FB7903F00103002B00F0A4819E4B1B78DBB2453B052B00F2998191
:401BC00001A252F823F000BFE11B0000271D0000F31E0000F31E0000E11B00005D1E0000FB7923F02003FB71FB7903F00A03DBB2082B54D18D4B1B78DBB2452B42D18C4B8C
:401C00001B78DBB2002B15D08A4A8B4B1B681B78DBB21370894B06221A70894BFF221A70884B00221A70884B01221A707F4B46221A7062E1854B1B78DBB203F00203002B8E
:401C40000ED0834B1B78DBB243F00A03DAB2804B1A70764B60221A707E4B01221A604CE17D4A7D4B1B78DBB243F02003DBB21370724B52221A70724BFF221A70714B002201
:401C80001A703AE16D4B02221A706D4BFF221A706C4B00221A70654B4A221A702DE1FB7903F00A03DBB20A2B39D1694B1B78DBB263F05F03DAB2664B1A70644B1B78DBB240
:401CC00003F00203002B18D0584B1B78DBB203F00803002B01D0092300E00A23DAB25C4B1B78DBB21343DAB2594B1A704F4B60221A70584B01221A60FFE0574A564B1B78E6
:401D0000DBB243F02003DBB213704C4B52221A704B4BFF221A704B4B00221A70EDE00020FFF750FEE9E0FB7903F00203002B4AD1454B1B78DAB23E4B1B78DBB29A421AD2CC
:401D40003C4A3D4B1B6840490978C9B20B441B78DBB21370394B06221A70394BFF221A70384B00221A70384B1B78DBB20133DAB2354B1A70C1E0354B1B78DBB203F0020321
:401D8000002B0ED0324B1B78DBB243F00A03DAB22F4B1A70254B60221A702E4B01221A60ABE02D4A2C4B1B78DBB243F02003DBB21370224B52221A70214BFF221A70214B2E
:401DC00000221A7099E0214B1B78DBB203F00203002B0ED01E4B1B78DBB263F06503DAB21B4B1A70114B60221A701A4B01221A6083E0194A184B1B78DBB243F02003DBB2DB
:401E000013700E4B52221A700D4BFF221A700D4B00221A700E4B1B78DBB263F06F03DAB20B4B1A7069E000BF636400409081FF1F9781FF1F0B6400409C81FF1F72640040A3
:401E40001B6400405B6400409481FF1F9581FF1F9681FF1F80E100E083640040404B1B68404A1278D2B213443F4A1278D2B21A703C4B1B78DBB20133DAB23A4B1A70394B88
:401E80001B78DAB2394B1B78DBB29A4209D2384B02221A70374BFF221A70374B00221A702BE0364B1B78DBB203F00203002B0ED0334B1B78DBB243F00903DAB2304B1A7001
:401EC000304B60221A70304B01221A6015E02F4A2E4B1B78DBB243F02003DBB21370244B12221A70234BFF221A70234B00221A7003E00020FFF766FD00BFFB7903F02003D1
:401F0000002B28D01F4B1B78DBB203F00803002B01D0012300E00223DAB2194B1B78DBB21343DAB2164B1A70184A184B1B78DBB223F02003DBB21370124B10221A700AE0C6
:401F4000104B1B78DBB203F01003DBB2002B02D10C4B10221A7000BF0837BD4680BD00BFA081FF1F9881FF1F0B640040A481FF1F726400401B6400405B6400409581FF1FD5
:401F80009681FF1F9081FF1F80E100E08364004080B485B000AF03460A46FB711346BB710223FB73294B1B78DBB2102B47D1284B1B78DBB203F01003002B3ED1254B0122D3
:401FC0001A60FB795B00FB71BB79002B07D0FB7943F00103FB711D4B49221A7002E01B4B45221A701C4AFB7913701C4B82221A701B4BFF221A701B4B00221A7000BF184B12
:402000001B78DBB2002BFAD100BF114B1B78DBB203F00103002BF8D00D4B1B78DBB203F00A03DBB20A2B05D1084B10221A700323FB7304E00023FB7301E00123FB73FB7B54
:4020400018461437BD4680BC704700BF9081FF1F6364004080E100E00B640040726400401B6400405B64004080B485B000AF03460A46FB711346BB710223FB73234B1B78D2
:40208000DBB203F00403002B3AD0FB795B00FB71BB79002B07D0FB7943F00103FB711C4B49221A7002E01A4B45221A70194AFB791370194B32221A70184BFF221A70184B3B
:4020C00000221A7000BF154B1B78DBB2002BFAD100BF0E4B1B78DBB203F00103002BF8D00A4B1B78DBB203F00A03DBB20A2B05D1074B10221A700323FB7301E00023FB73BC
:40210000FB7B18461437BD4680BC7047636400409081FF1F0B640040726400401B6400405B64004080B483B000AF0223FB71144B1B78DBB203F00403002B1BD0114B5222CB
:402140001A70114BFF221A70104B00221A7000BF0D4B1B78DBB2002BFAD10D4B10221A7000BF074B1B78DBB203F02103002BF8D00023FB71FB7918460C37BD4680BC7047B1
:4021800063640040726400401B6400405B6400409081FF1F80B485B000AF0346FB710223FB731E4B1B78DBB203F00403002B2ED01B4AFB7913701B4B06221A701A4BFF220F
:4021C0001A701A4B00221A7000BF174B1B78DBB2002BFAD1164B46221A7000BF0F4B1B78DBB203F00103002BF8D00C4B1B78DBB203F00203002B05D10D4B60221A700023A0
:40220000FB7304E00A4B60221A700323FB73FB7B18461437BD4680BC704700BF636400400B640040726400401B6400405B6400409081FF1F80B485B000AF0346FB710023DA
:40224000FB73224B1B78DBB203F00403002B37D01F4B1B78DBB2492B11D11E4B02221A701D4BFF221A701D4B00221A7000BF1A4B1B78DBB2002BFAD1154B4A221A7000BFCA
:40228000124B1B78DBB203F00103002BF8D0144B1B78FB73FB79002B0FD00E4B02221A700D4BFF221A700D4B00221A7000BF0A4B1B78DBB2002BFAD102E0054B60221A7063
:4022C000FB7B18461437BD4680BC7047636400409081FF1F726400401B6400405B6400400B64004080B483B000AF094B01221A60084B1B78FB71074B00221A70064B012245
:402300001A60FB7918460C37BD4680BC704700BF80E100E09681FF1F00E100E080B500AF0D4B1D221A700D4B02221A6007210120FFF790FB0A490120FFF764FB00F018F993
:4023400000F06CF800F078F8064B08221A70064B00221A7000BF80BD8764004080E100E0F5250000886500408965004080B582B000AF00F09CF90346FB71134A124B1B782D
:40238000DBB243F02003DBB21370104A0F4B1B78DBB243F01003DBB213700D4A0C4B1B78DBB243F01003DBB21370FB79184600F082F900F043F900F01FF800F029F800BF9C
:4023C0000837BD4680BD00BF97640040986500409965004080B500AF064B1B78002B04D1FFF79CFF034B01221A70FFF7BFFF00BF80BD00BF8381FF1F80B400AF034B0222AF
:402400001A6000BFBD4680BC704700BF00E100E080B400AF00BFBD4680BC704780B483B000AF044B1B78FB71FB7918460C37BD4680BC70476865004080B483B000AF044B74
:402440001B78FB71FB7918460C37BD4680BC70476965004080B483B000AF0346FB8000BF074B1B78DBB203F00403002BF8D0054AFB88138000BF0C37BD4680BC704700BF30
:40248000686500404864004080B483B000AF044B1B88FB80FB8818460C37BD4680BC70475864004080B400AF01E0064B1B88064B1B78DBB203F02003002BF6D100BFBD4697
:4024C00080BC7047586400406965004080B582B000AF00F0ECF80346FB71144A134B1B78DBB243F00103DBB21370104A0F4B1B78DBB223F00103DBB213700D4A0C4B1B78E1
:40250000DBB243F00103DBB21370094A084B1B78DBB223F00103DBB21370FB79184600F0CAF800BF0837BD4680BD00BF986400409964004080B584B000AF78600B46FB7034
:402540000023FB730DE0FB7B5B007A6813441B881846FFF77FFFFB7B0133FB73FB78013BFB70FB78002BEED100BF1037BD4680BD80B582B000AF01E01A4B1B881A4B1B7892
:40258000DBB203F02003002BF6D100F090F80346FB71164A154B1B78DBB243F00103DBB21370124A114B1B78DBB223F00103DBB213700F4A0E4B1B78DBB243F00103DBB29D
:4025C00013700B4A0A4B1B78DBB223F00103DBB21370FB79184600F06EF800BF0837BD4680BD00BF5864004069650040986400409964004080B400AF00BFBD4680BC704727
:4026000080B485B000AF0346FB710B4B1B78DBB223F00803FB730849FB79DB00DBB203F00803DAB2FB7B1343DBB20B7000BF1437BD4680BC704700BFC051004080B400AF4D
:40264000094A094B1B78DBB243F00203DBB21370064A064B1B78DBB243F00203DBB2137000BFBD4680BC7047A2430040B2430040142816D902B4012114381049097811F009
:40268000C001890904B40E4A515C04BC00BF00BF00BF8841FDD500BF00BF02BC704700BF00BF70F10400FCD570470B050709EFF3108072B6704780F3108870470048004059
:4026C000AA260000014B1868704700BF4481FF1F0E4B70B51E460E4C0025E41AA410A54204D056F8253098470135F8E700F0F6FC084B094C1E46E41AA4100025A54204D000
:4027000056F8253098470135F8E770BDE8300000E8300000E8300000F030000010B5431E0A44914204D011F8014B03F8014FF8E710BD03460244934202D003F8011BFAE7D8
:40274000704700000EB400B54FF402719CB0ADF814106FF00041049107914FF6FF711DAB02900690084853F8042BADF81610006802A9019300F064F8029B00221A701CB051
:402780005DF804EB03B070474481FF1F2DE9F0478E6882469E420C46914698463ED88A8912F4906F3AD02568096902236F1A656905EB450595FBF3F57B1C43449D4238BF3D
:4027C0001D4653050FD5294600F040FB064698B13A462169FFF7A2FFA38923F4906343F08003A38113E02A4600F08EFB064670B92169504600F0DEFA0C23CAF80030A389D4
:402800004FF0FF3043F04003A381BDE8F08726613E44266046466561ED1BA560464528BF464649463246206800F0A8FAA36800209B1BA36023681E442660BDE8F0870000F4
:402840002DE9F04F9DB003938B8980461C060D4616460DD50B695BB9402100F0F7FA2860286118B90C23C8F80030CDE040236B610023099320238DF82930DFF89CB1302395
:402880008DF82A3037463C4614F8013B1BB9B7EB060910D003E0252BF9D02746F3E74B46324629464046FFF771FF013000F0A780099B4B4409933B78002B00F0A0800023BE
:4028C0004FF0FF3204930793059206938DF853301A930126052221784E4800F041FA671C049B38B14B4A3C46801A06FA00F018430490EFE7D90644BF20228DF853201A07FC
:4029000044BF2B228DF8532022782A2A03D0079A00210A200BE0039A111D12680391002A10DA524243F00200079204900BE027463B780134303B092B03D800FB02320121C9
:40294000F5E701B107923B782E2B1ED17B782A2B0AD1039B02371A1D1B680392002BB8BF4FF0FF33059310E0002319460593781C0A2407463A780130303A092A03D804FBCE
:4029800001210123F5E703B1059103223978224800F0E6F940B14023CBEB000003FA00F0049B013718430490397806221B487E1C8DF8281000F0D4F988B1194B33B9039B68
:4029C000073323F007030833039314E003AB00932A46144B04A94046AFF3008007E003AB00932A460F4B04A9404600F093F8B0F1FF3F824603D0099B5344099342E7AB8908
:402A00005B0601D4099801E04FF0FF301DB0BDE8F08F00BFA6300000AC300000B0300000000000008D2700002DE9F04791461F460A698B6806469342B8BF1346C9F80030A9
:402A400091F843200C46DDF8208012B10133C9F800302368990642BFD9F800300233C9F80030256815F0060510D104F1190A07E00123524639463046C04701301AD00135E3
:402A8000E368D9F800209B1A9D42F1DB94F843302268003318BF012392060FD5E118302081F843005A1C94F845102244023382F8431003E04FF0FF30BDE8F08704F14302DC
:402AC00039463046C0470130F4D02268D9F80050E36802F00602042A08BF5D1B2269A3680CBF25EAE57500259342C4BF9B1AED184FF000091A344D4509D00123224639467B
:402B00003046C0470130D5D009F10109F3E70020BDE8F0872DE9F04317460A7E85B06E2A984606460C460C9B01F1430E00F0AE8011D8632A22D009D8002A00F0BB80582A89
:402B400040F0CA8081F84520834955E0642A1ED0692A1CD0C0E0732A00F0B08009D86F2A2ED0702A40F0B8800A6842F020020A603EE0752A24D0782A3AD0ADE01A6801F19C
:402B80004205111D1960136884F84230A8E021681A6811F0800F02D0111D196008E011F0400F02F10401196002D0B2F9003000E01368002B3CDA2D225B4284F8432037E04E
:402BC00021681A6811F0800F02D0111D196007E011F0400F02F10401196001D0138800E01368227E5C496F2A14BF0A2208221BE078225A4984F845202268186812F0800F97
:402C000000F104051D6003D1550601D5038800E00368D00744BF42F0200222601BB9226822F0200222601022002084F8430001E049490A226568002DA56008DB206820F054
:402C4000040020602BB9002D7DD175460CE0002B79D07546B3FBF2F002FB1033CB5C05F8013D03460028F5D1082A0BD12368DA0708D5236962689A42DEBF302305F8013C7F
:402C800005F1FF35C5EB0E0323612EE008681A6810F0800F496903D0101D1860136808E010F0400F02F104001860136801D0198000E0196000232361754616E01A68111D85
:402CC0001960156800216268284600F049F808B1401B6060636804E004F1420584F8422001232361002384F84330CDF800803B4603AA21463046FFF797FE013002D14FF0DF
:402D0000FF3026E023692A4639463046C0470130F5D023689B0710D5002504F1190907E001234A4639463046C0470130E7D00135E368039A9B1A9D42F2DBE068039B984264
:402D4000B8BF184605E00B7804F1420584F842308AE705B0BDE8F083B7300000C830000010B5C9B202449042034605D01C7801308C42F8D1184610BD002010BD884210B556
:402D800001EB020301D8421E0BE09842FBD28118D21AD34204D013F8014D01F8014DF8E710BD994204D011F8014B02F8014FF8E710BD000038B50546002944D051F8043CA5
:402DC0000C1F002BB8BFE41800F0D4F81E4A1368114613B96360146030E0A3420DD92268A018834201BF18685B681218226063600C6023E0A24203D813465A68002AF9D180
:402E000018681918A1420BD12168014458188242196013D110685268014419605A600DE002D90C232B6009E021686018824201BF106852680918216062605C602846BDE8C4
:402E4000384000F098B838BD8881FF1F70B5CD1C25F0030508350C2D38BF0C25002D064601DBA94202D90C23336046E000F082F8234B1C681A462146A1B10B685B1B0ED472
:402E80000B2B03D90B60CC18CD501EE08C420BBF63684B681360636018BF0C4615E00C464968E9E7174C23681BB9304600F052F820602946304600F04DF8431C18D0C41C26
:402EC00024F00304A0420DD12560304600F053F804F10B00231D20F00700C31A0ED05A42E25070BD211A304600F034F80130EBD10C233360304600F03EF8002070BD00BF90
:402F00008881FF1F8481FF1FF8B5074615460E4621B91146BDE8F840FFF798BF1AB9FFF749FF2846F8BD00F027F885420ED929463846FFF78BFF044650B131462A46FFF7BD
:402F4000EDFB31463846FFF735FF01E03046F8BD2046F8BD38B5064C0023054608462360FDF782FC431C02D1236803B12B6038BDA881FF1F7047704751F8040C0028BEBF8F
:402F8000091851F8043CC0180438704700000000434F4D20506F7274204F70656E0D0A007B0D0A0922417667204144432056616C7565223A2022253175206D56222C0D0A9E
:402FC00000000000092254656D70657261747572652028496E7429223A202225692E256920222C0D0A000000092254656D7065726174757265202849324329223A20222564
:40300000692043222C0D0A00092254656D70657261747572652028535049293A202225692E25692043220D0A7D0D0A0053616D706C653A20256C75206D560D0A0000000097
:40304000456D756C6174656420446174613A202578200D0A00000000035B00402443004040000000305100404000F051004010000000014000108014014080070040014012
:40308000000A004C01400002005001402000000060520040A00A0048060000140140A80A004880004300232D302B2000686C4C006566674546470030313233343536373807
:4030C00039414243444546003031323334353637383961626364656600000000F8B500BFF8BC08BC9E4670474D00000051090000F8B500BFF8BC08BC9E46704729000000D2
:4031000010310000C880FF1F800000006800000000000000B081FF1F01FF000000366E01C05D0000180000000000E02E0000000000000000000000000000000000000000C9
:40314000000000000000000000000000A43000000000000000000000000000000000000000000000000000000000000000000000000000000000000000000000000000007B
:40318000000000000000000000000000E480FF1F0000000000000000000000000000000000000000000000000000000000000000000000000000000000000000000000008D
:4031C00000000000000000000000000000000000000000000000000000000000000000000000000000000000000000000000000000000000000000000000000000000000CF
:40320000000000000000000000000000000000000000000000000000000000000000000000000000000000000000000000000000000000000000000000000000000000008E
:40324000000000000000000000000000000000000000000000000000000000000000000000000000000000000000000000000000000000000000000000000000000000004E
:40328000000000000000000000000000000000000000000000000000000000000000000000000000000000000000000000000000000000000000000000000000000000000E
:020000040003F7
:0200000480007A
:400000000564004002650040470201402F03014051040140550501404F0601404C07014068080140470901405C0A0140390B0140010D0140010F01401C14014049150140FA
:400040005816014057170140561801404B190140081B01400340014004410140094201400143014008440140024501400646014001470140074801400E490140014C01406E
:40008000094D014007500140015101402B048438850F871D8972240F3408013F074009220B180D22111C1322150119011B1E1D181F0621322308252A271029042D06331F12
:4000C0003760390852F659045B045C205D205F01810183068435864087138C018E0E907594019602981099019AE09B329C759D129F01A011A101A288A304A824AA51AB13BA
:40010000AC64AE11AF1BB00FB107B308B4F0B510B720BA22BB02BF10D420D604D804D904DB04DC22DD20DF01032209490A041111134019011A041B0220042185254026085F
:400140002701280A2A012D802F683180321036183741390A3C883D11588059015A14600462806380650266026C046F1074407502762077048340C005C20FC40BCAFDCCFC2E
:40018000CEF3D60FD80D01FF04100A080D460E0F0FA9120F140F158017561A041B011D331E081F0C20202242241025402713280F292A2B542C202D0E2E412F30307031FFA0
:4001C000340F38023E1154185604580459045B045C205D305F0184038604880A89018A048F019003920C97019C039D019E04A208AE05AF01B00FB101BA02BF01C045C10237
:40020000C6BCC70EC81CC9FFCAFFCBFFCEF0CF44D00CD401D804D904DA04DB04DC03DD33DF01E6C0EA40EB0200040130021003020728080A0A0A0B200C800E80100111821A
:400240001208130415401702180419011D021E801F01220123402780280129202B202D403010320833403640370839033A013B403C203F80450247204BC04D405480560452
:4002800057505A015E045F916202630A830884028602870188208B108E1090089511963097C09A229B149C8A9D809E019F40A040A140A404A509A690A728AA08C067C29F3A
:4002C000C49FCA1ECC5ECE39D0A0D210D6F1D80DE60B0008011F020704010701082209010A050C030D400F0B1010114F120714C015901607170B180319031B201C3A1D4026
:400300001E041F1420FF2148230224012501280129422B092C052D032E78311F328033E0347F3740380839883E103F44580459045C225F018121831685218601870E880371
:40034000991C9B239C039F1CA402A540A703AF08B31AB403B50FB760B820B980BB28BE10D602D728D804D904DB04DC30DD10DF0100200108048005A2062008400B020C146C
:400380000E020F401308140115071608171419101C081E20202021042250232A250D2681274029082A402DA6325034153608374039083B023D013EA83F40602068A86A4011
:4003C000730181488820900893429542961C972498219A369B149C909DA09F6AA040A310A414A509A698A722AA04AB05AE01B080B108B310B501C0F6C2F1C4F4CAFACCFCA1
:40040000CEF3D802EA08EE04000802340408062008370C340E03103714371E022037240826102C042E08303C320236013A023E44403241054240440649FF4AFF4BFF4C022A
:400440004E704F08500458045A045C015D015F0162C0644065016610671168C069016B116C406D016E406F018041822084828AC38C1F8EC090C3940C98DF9CD39E0CA00804
:40048000A404A81CAAC3B0C0B220B410B60FBA80BE10C032C101C250C406C5DEC6F0C7CBC83BC97FCAFFCBFFCC23CEE0CF08D004D602D711D804DA04DB04DC03DD31DF01C9
:4004C000E2C0E440E501E610E711E8C0E901EB11EC40ED01EE40EF010084038805010601072408800A9A0C050D040F0110A013101410174119101A021B061D091E023410B8
:400500003580369137024008422143404418462047224A094B054C024E085005510152205910695470A07144721088028A018B01920593109420950296089A089C859D4478
:400540009E119F35A040A298A420A602A786A902AF02B008B708C0FFC2BFC4BED0EED23CD604E420EC600402055C060D07A20BC30D1C0E200FE1140515FF163A19081A804A
:400580001C131D041E0C21E7224023182518268028092A362B042D102E40308031983240331F340F35203630375839203A203B0A3E05580459045C315F0184FC860388385A
:4005C0008AC08C988E028F0290029298942196D89B019C139E64A002A49AA89AAC98AE02B20FB301B4E0B613B702B920BA28BF10C063C402C6B0C70DC818C9FFCA7FCBFF27
:40060000CC42CDA0CE70D00CD804D904DA04DC21DD02DF01E109E240E309E430E509018003200510072109080A010B040C010E21129213201404150216011704198A1B207A
:400640001D181E2520C021042280231426242702288029442B043020320433803710386039083F4047184C08560857108310858887028B608E04A208A620B608C0E5C2B72B
:40068000C4FFCA0FCC2ECE1ED060D220E028E2C0A6208E2080028308850189018F02913D93C2960197FF99409B1D9DE2A15DA3A2A50DA904ABE0AD92AF60B002B401B5FFD4
:4006C000BE01BF10D804D904DC02DF01012003A2050108800A400B100E2010811110130818801B121E801F102140220723302404288029202A802B102C902D202EC030901D
:40070000320933403481360837A838043A013B903C803D083E283F0241484504470449044B0453208040865087C08E12911096189724981199219AA19BC49D049E08A04078
:40074000A108A208A301A480A702C01FC22DC40FCAFFCCFFCEFFD00AE008E402EC1002030301050408200B020C090E100F0411CC1313141417B519A51B4A1C101DFF1E0CF6
:40078000201021A92354241C251A26022760280C294D2A112B922D02301F342037FF3A803E103F40580459045C035F018104821084868501880589068A0A8CEF92209401D8
:4007C00096029A829E40A081A204A4E0A506A808AA05AC01AE82B020B101B302B41FB504B6C0B928BF04C006C604C9FFCA07CBFFCC40CD20CEF0CF05D008D804D904DA046B
:40080000DC22DD03DF01E040E1A8E240E3200124028205010604070208800A6A0C400F20108011081208134016401728188019201A421B011D411E042119220223802680D8
:4008400029042CA02D042E402F08301032143308352036083781380839123A103C803E2A42804301440146014918524079207A0884219008934094809502961C97249851F3
:4008800099109AB69B6E9C809D689E40A040A104A310A608A702AA40AC90AD02AE04AF20B008B140B701C0DFC2AFC47FCAF2CCF0CEF7D204E208E604E80CEE02000404606B
:4008C00008010C04140A161018041C071E382004240428562A092E042F0130023301347F360838203E4154095604580459045B045C215D105F0180228104825184448631E7
:400900008C809001920E952497489970A119A322A4E7A52EA751A8E7B007B280B307B460B578B618B920BB08BE40C043C102C205C401C6E0C7C0C828C9FFCAFFCBFFCC6231
:40094000CDA0CEF0CF41D00CD440D804D904DA04DB04DC13DD13DF01E640E702E910EA30EB10ED10EE10EF12000601400408051006410A800C400E25111414011725182593
:400980001A901B081D501F0122142320271028502F02321438024081421043204980521259405A405C205E425F04610862206301678282108740900A9154920593059424B8
:4009C0009680989199809A419B059E109F30A108A231A320A602A788AA01AD04AE08B005B244B320B704C0FDC2E8C4F6CA13CC06CE01D00FD208D6F0D89EE880EC308702A5
:400A000088018B80A401A782B421E402EC1033113580CC7083109D809F11E220574087019D809F01A340AB40D440E240EA209D80110873107D028D01C408DC01DE01E008E6
:400A40009710A104450887109710B504D001EE02A5082510810885809D80C820E210E6201280164073807508838086C09908B510C430DC80DE20E010E280E410A508104020
:400A8000740484048840B508C408DE04E201EC08000E08040A0E0C0E100E1A0C1C0E003F8A82000040000000400880230F000080000B0860400280010001180600001423E1
:400AC000000000083F080023100102440410080000082003100B01003F0700E0C00000180280000A00000040310000000002500009FFFFFF42A0700008100000000000000D
:400B0000040404002202000100484048804880480000000000000000000000000000000000000000000000000000000000000100980040B8AB00AB0000000000000B0B0027
:400B4000000000000400000602000000000000004A001801000000000000000000000000000000000000000000000000000000000000000000000000000000000000000006
:400B80000000000000000000000000000000000000000000000000000000000000000000000000000000000000000000000000000000000000000000000000000000000035
:400BC00000000000000000000000000000000000000000000000000000000000000000000000000000000000000000000000000000000000000000000000000000000000F5
:400C000000000000000000000000000000000000000000000000000000000000000000000000000000000000000000000000000000000000000000000000000000000000B4
:400C40000000000000000000000000000000000000000000000000000000000000000000000000000000000000000000000000000000000000000000000000000000000074
:0200000490006A
:0400000000004005B7
:0200000490105A
:04000000BC90ACAF55
:0200000490303A
:020000005F2976
:0200000490402A
:4000000000000000000000000000000000000000000000000000000000000000000000000000000000000000000000000000000000000000000000000000000000000000C0
:400040000000000000000000000000000000000000000000000000000000000000000000000000000000000000000000000000000000000000000000000000000000000080
:400080000000000000000000000000000000000000000000000000000000000000000000000000000000000000000000000000000000000000000000000000000000000040
:4000C0000000000000000000000000000000000000000000000000000000000000000000000000000000000000000000000000000000000000000000000000000000000000
:0200000490501A
:0C00000000012E16106900012E2B6F92DB
:00000001FF