:4000000000800020110000006D0800006D08000008B5044B1A6803F53F5302331A6000F02DFC00BFFA46004010B5054C237833B9044B13B10448AFF300800123237010BD64
:400040005881FF1F00000000A01D0000084B10B51BB108490848AFF300800848036803B910BD074B002BFBD0BDE81040184700BF000000005C81FF1FA01D0000C880FF1F68
:400080000000000010B5A8B062B600F0A1FE00F02FFF01F07FF8684600F062F9684600F013F8684600F072F8054B187800F020FA044C207800F04EFA207800F023FAEDE7C9
:4000C000C881FF1F7481FF1F2DE9F0410746002654E0304600F01CFF00244BE006EB86025301FD18A04604EB8402D3002B445B88002B3DD0234B53F824300120984700F031
:40010000DDFE80B204EB8402D3002B445B88984223D204EB8402D3002B449B88984207D2A2002244D3002B44988001225A701AE0C01A154B1B88984208DDA2002244D300FC
:400140002B4400225A705A889A800CE004EB8402D3002B4401225A7005E004EB8402D3002B4400225A70074B53F82830002098470134E4B2032CB1D90136F6B2032EA8D907
:40018000BDE8F081CC80FF1FD281FF1F70B489B0002224E091008D186C01051903EB8306F4002C44647808AD2944194411F8101C8C420CD094001D19B1FA81F1490908AE06
:4001C000354405F8201C34441C4404F8101C0133DBB200E00023032BDCD90132D2B2032AF8D90F2308AA1A4412F8202C32B1054A1370002108AA1A4402F8201C013BDBB274
:40020000F0E700BFC881FF1F08B501F071F906A3D3E9002301F0C0F90022054B01F008F801F054FC80B208BD713D0AD7A3504A40000069402DE9F8430746002520E0A84676
:40024000464B53F825300120984700240FE0204600F05EFE05EB85025301FE1800F02EFE04EB8402D3003344D8800134E4B2032CEDD93A4B53F82830002098470135EDB2B8
:40028000032DDCD9002649E0304600F041FE4FF000093EE04D46314B53F82930012098474FF0000829E000F009FE05EB8502D30023449B88984205DA05EB8502D3001C44CE
:4002C0000023A38000F0FAFD06EB86035C013C4405EB8502D3001A4623445B889842E2DB22449288934208D9A9002944CB001C4422816388A3804FF00108B8F1000FE1D016
:40030000164B53F825300020984709F101095FFA89F9B9F1030FBDD90136F6B2032EB3D9002417E03846FFF7CFFE002010E000EB80014A01B91803EB8304E2000A4454788B
:400340000133DBB200E00023032BF0D90130C0B20328F8D9002CE5D0BDE8F883CC80FF1F2DE9F04F93B0824602AC574D0FCD0FC40FCD0FC40FCD0FC495E80F0084E80F00F2
:400380000026354670E004EB850312AA02EB830353F8409C4FF08141484601F023FC002857D1484601F0A4F845A3D3E9002301F065FB00284FD105EB85070AEB47174846B8
:4003C000FFF722FFA200131907EBC30358800021597098803D4F384601F00EFC5FFA80F8781C01F009FCC7B2404600F091FD0197374B53F827300120984700F05FFD08EBAE
:4004000088090AEB491907EB870309EBC3035B8898420DDB14E000F051FD019B03EB830309EBC3035B88984204DD4FF0010B01E04FF0000BBBF1000FEDD05046FFF7FAFEED
:40044000404600F06BF9224B53F827300020984702E0012600E002260134E4B200E00024032C90D90135EDB2032DF8D91948FFF7CBFE194B1880EEB1013E032E12D8DFE86A
:4004800006F002060A0E154800F09EFE0AE0144800F09AFE06E0134800F096FE02E0124800F092FE114800F08FFE41F2883000F071FAFAE713B0BDE8F08F00BFAFF3008029
:4004C0009A9999999999B93FA41D0000E41D0000CC80FF1FCDCCCC3DD281FF1FE81D0000381E0000881E0000EC1E0000501F0000034B1B78DBB2834201D0014B1870704725
:400500007481FF1F704700BF38B50D4600F000FD074C54F825300120984700F0CFFC3830044B187054F825300020984738BD00BFCC80FF1FCC81FF1F08B5042000F0E8FC39
:4005400000F0BCFC00F0A8FC014B588008BD00BFCC81FF1F08B5032818D8DFE800F002090E1300210846FFF7CFFFFFF7E5FF08BD01210020FFF7C8FF08BD02210020FFF7A2
:40058000C3FF08BD03210020FFF7BEFF08BD00BFFEE700BFF0B40022174611E050F82760F3B226F0FF0608E001EB420511F812406D78A5550132013BDBB2002BF4D1013779
:4005C000122FEBD9F0BC7047084B1B78DBB203F00701074A11701B09013213706022054B1A704422A3F28A231A707047CF0100496E580040005B004008B50A46002101F05B
:4006000036FB08BD08B501F027FB08BD38B500242F4B1C80502202331A704FF49C7202331A80182202331A7004222A492A48FFF7E9FF0222294B1A7008224FF040231A705D
:40064000032103F500731970254B1B78DBB225490B70254B1A8041F25122023B1A8019250CE0224B1B7803F0010343EA440404F003044FF4F07000F0C7FD013D0DB1032C4F
:40068000EFD115B90320FFF783FF194B4FF480721A8007221A70002216490A704820023108701A700222033B1A7004220A331A70114A137843F003031370013A137843F01F
:4006C00001031370013A137843F08003137038BD8040004024030048004100400043004008010049A146004022420040254200400440004006400040A2430040012809D80F
:40070000054B03EB8002D26B184490F8441013780B431370704700BFA81F000001280AD8054B03EB8002D26B184490F84410137823EA010313707047A81F000038B572B6F9
:40074000384A137843F00403137000240CE0364863001A19510001440A46B1F84C10906CFFF74AFF0134E4B2082CF0D900240EE02D48A20011194B000344B3F88820D3F89A
:400780008410D3F88000FFF73DFF0134E4B2012CEED926494FF09040FFF7FCFE0A25244B1D70244A137843F0020313701032137843F002031370204C237843F04003237084
:4007C000A2F58632513A137843F01003137008221A491B48FFF716FF2A461A491A48FFF711FF082219491A48FFF70CFF082219491948FFF707FF194A137843F0080313700E
:40080000174D61232B70FFF701FF81232B700122144B1A70FFF7D8FE0E2221461248FFF7F1FE38BDE8460040A81F00004C0000488358004003500140A04300400003004877
:400840000251004008030048C051004014030048125100401C03004832510040224300400048004004000840B043004008B501F0C7F903680C2B00D1FEE7FEE708B5104EA3
:40088000104D16E029686B68AC68002204E051F8040B43F8040B0432A242F8D1E868002203E0002143F8041B04328242F9D11035013E002EE6D101F0A9F9FFF7E3FBFEE799
:4008C000010000006421000008B5104A104B1A60104A136843F40073136000230AE0032B03D80D4A52F8231000E00C490C4A42F8231001332F2BF2D90A4B1A780A4B1A7093
:40090000074A0A4B1A60FFF719FF08BD0004FA050CED00E014ED00E0000000006D0800000080FF1FBC760040C080FF1F08ED00E0044A137803F0FE0300F0010018431070B6
:40094000704700BF30510040044A137803F0FD03400000F0020018431070704730510040044A137803F0FB03800000F0040018431070704730510040044A137803F0F70398
:40098000C00000F008001843107070473051004001BE704710B5044605E0084B186800F033FCA4F50044B4F5004FF6D8034B586800FB04F000F028FC10BD00BFDC80FF1F16
:4009C00008B5034B1B7A00FB03F000F01DFC08BDDC80FF1F70B504460E46074B1D681F2802D90020FFF7D4FF04F01F04103455F8240045F8246070BD08ED00E038B50446B6
:400A00000D46072902D90020FFF7C2FF1F2C02D90020FFF7BDFF04F01F0000F1604000F564406D01EDB2057038BD00BF10B59DF80840012C51D1013809282ED8DFE800F0FE
:400A4000052D2D052D2D0F192D230F2B03D92548007840B222E02448007840B21EE00F2B03D92248007840B218E02148007840B214E00F2B03D91F48007840B20EE01E4899
:400A8000007840B20AE00F2B03D91C48007840B204E01B48007840B200E0002001EB401101FB02F1C90B8AB20D2B0BD8C3F10E0289B211418AB2611E124800EB81010133EF
:400AC0008B7005E0631E0F4901EB83030F219970013C0C4B23F8242010BD0020FFF758FF10BD00BF180100491C010049190100491D0100491A0100491E0100491B01004916
:400B00001F0100497881FF1FF8B5074600F084FB06460D4D2B7843F003032B700B4C237843F0030323700A4B1F700320FFF748FF2B7803F0FC032B70237803F0FC0323705D
:400B4000304600F06DFBF8BDF8460040F9460040925800400022304B1A7101285BD170B538222E4B1A70052602331E70072201331A70002401331C7001331C701623284AA8
:400B8000137002321470013214700132147001250A321570142102F52762117001321670013213701F4B1C70442203331A70482201331A7001331D7002331D7011220133D2
:400BC0001A70192201331A70972201331A705220FFF79AFF5822144B1A7001331C7005331E70022201331A7001331C7001331C70204600F08DF9CD220C4B1A60294630462E
:400C000000F0AAF92946672000F02AFA08491D20FFF7E0FE70BD70477881FF1F004E0040064E00408758004094580040D481FF1FE50E0000F0B583B0284D01272F70284E5D
:400C400000247471102000F075F9102000F0F6F907211D20FFF7D2FE0422224B1A7001331C7007331C70204A137843F0180313701E4B1C7003F2F5231C7001331C700A23BF
:400C8000A2F2872213700132147002321470122105321170132101321170043214701421A2F68C221170009747F6060248F66B510220FFF7BBFE2B78013B06EB83039A786D
:400CC0000B4B1A702B78013B36F82320094B1A802878FFF73FFF03B0F0BD00BFEC80FF1F7881FF1F96580040075B0040935800400E4E00400C4E004070B500F08DFA064629
:400D00002A4B1B782A4B1A7842F001021A701A7842F010021A7010331A7842F001021A701A7842F010021A70224D2B7843F002032B70214C237843F0020323701F4A1378E5
:400D400043F0030313700320FFF73AFE2B7803F0FD032B70237803F0FD032370184A137843F0060313707A22164B1A70164A137843F0010313701032137843F001031370B5
:400D80000F3A137843F0010313701032137843F0010313704FF000530C4A1360A2F5C0721360304600F03CFA70BD00BFEC80FF1FAA430040F8460040F94600409158004022
:400DC0007758004082580040A143004080E200E008B5084B9B794BB9064BDB7913F0FF0F01D1FFF727FF0122024B9A71FFF784FF08BD00BF7881FF1F024A137843F00103FB
:400E000013707047004E0040024A137803F0FE0313707047004E0040094B1B7913F0FF0F03D0074B5B79DBB203E0064B1B7803F00103012B01D00028EED01846704700BF63
:400E40007881FF1F014E00400E4B1B7803F00303012B03D80C4B188880B209E00A4A12780A49087842EA0020032B01D1084B1B78084B1B7913F0FF0F02D00022054B5A71E4
:400E800000B27047144E0040104E0040114E0040124E00407881FF1F064B9B68C01A4FF47A7303FB00F0044B1B6890FBF3F000B2704700BF7881FF1FD481FF1F10B5084ADE
:400EC000137843F004031370FFF796FF0020FFF7A3FFFFF7B9FF0446FFF796FF204610BD014E00400122014B1A7070478481FF1F10B5002404E02046FFF710FC0134E4B24F
:400F0000012CF8D9FF22014B1A7010BDED80FF1F10B50446FFF7ECFF2046FFF7EFFB014B1C7010BDED80FF1F014B188880B2704780400040034B1A7800F0F8001043187086
:400F4000704700BF82400040024B187800F00700704700BF8240004070B505460E46FFF7F3FF0446FFF7E0FFA84256D02B4B1B7803F0010294B900B185B938B9284B1D8096
:400F8000284A137803F0BF03137070BD254A137843F040031370224B1D8070BD22B3002321490B7001240F310C7004310B700C390B7803F07F030B701A4B1B7813F0080F6D
:400FC00000D08DB9194B18800721013B1970164B1B7813F0010FFAD110490B7803F0FE030B700021104B19700C4B1B7813F0010F0DD00E4B1D800EB1032200E001220A4BC4
:401000001A70094B1B7813F0010FFAD170BD044B1D8002490B7813430B7070BDA243004080400040824000400140004002400040014B188880B2704700410040034B1A781C
:4010400000F0F80010431870704700BF02410040024B187800F00700704700BF0241004070B505460E46FFF7F3FF0446FFF7E0FFA84256D02B4B1B7803F0010294B900B10F
:4010800085B938B9284B1D80284A137803F0BF03137070BD254A137843F040031370224B1D8070BD22B3002321490B70012413310C7004390B7008390B7803F07F030B7037
:4010C0001A4B1B7813F0080F00D08DB9194B18800721013B1970164B1B7813F0010FFAD110490B7803F0FE030B700021104B19700C4B1B7813F0010F0DD00E4B1D800EB12E
:40110000032200E001220A4B1A70094B1B7813F0010FFAD170BD044B1D8002490B7813430B7070BDA1430040004100400241004001400040024000407222074B1A70202221
:4011400001331A700622623B1A70472210331A7000224F331A7070478A65004010B500F05BF804460A4A137843F0200313700132137843F010031370033A137843F0100379
:40118000137000F033F8204600F04AF810BD00BF9A65004008B5054B1B7823B9FFF7CCFF0122024B1A70FFF7D9FF08BD8581FF1F034B1B7813F0040FFAD1024B18707047F2
:4011C000686500404865004038B5074B1B782BB938BDFFF7EDFF0134A4B201E005460024285D0028F5D138BD8581FF1F054A137843F0020313701032137843F002031370E4
:40120000704700BFA24300400230800803D000BF01380046FCD17047EFF3108072B6704780F31088704700BF81F0004102E000BF83F0004330B54FEA41044FEA430594EA87
:40124000050F08BF90EA020F1FBF54EA000C55EA020C7FEA645C7FEA655C00F0E2804FEA5454D4EB5555B8BF6D420CDD2C4480EA020281EA030382EA000083EA010180EA01
:40128000020281EA0303362D88BF30BD11F0004F4FEA01314FF4801C4CEA113102D0404261EB410113F0004F4FEA03334CEA133302D0524263EB430394EA050F00F0A7804E
:4012C000A4F10104D5F1200E0DDB02FA0EFC22FA05F2801841F1000103FA0EF2801843FA05F359410EE0A5F120050EF1200E012A03FA0EFC28BF4CF0020C43FA05F3C018EA
:4013000051EBE37101F0004507D54FF0000EDCF1000C7EEB00006EEB0101B1F5801F1BD3B1F5001F0CD349085FEA30004FEA3C0C04F101044FEA445212F5800F80F09A8016
:40134000BCF1004F08BF5FEA500C50F1000041EB045141EA050130BD5FEA4C0C404141EB010111F4801FA4F10104E9D191F0000F04BF01460020B1FA81F308BF2033A3F156
:401380000B03B3F120020CDA0C3208DD02F1140CC2F10C0201FA0CF021FA02F10CE002F11402D8BFC2F1200C01FA02F120FA0CFCDCBF41EA0C019040E41AA2BF01EB0451B9
:4013C000294330BD6FEA04041F3C1CDA0C340EDC04F11404C4F1200220FA04F001FA02F340EA030021FA04F345EA030130BDC4F10C04C4F1200220FA02F001FA04F340EAB3
:401400000300294630BD21FA04F0294630BD94F0000F83F4801306BF81F480110134013D4EE77FEA645C18BF7FEA655C29D094EA050F08BF90EA020F05D054EA000C04BFE9
:401440001946104630BD91EA030F1EBF0021002030BD5FEA545C05D14000494128BF41F0004130BD14F580043CBF01F5801130BD01F0004545F0FE4141F470014FF00000C8
:4014800030BD7FEA645C1ABF194610467FEA655C1CBF0B46024650EA013406BF52EA033591EA030F41F4002130BD00BF90F0000F04BF0021704730B54FF4806404F1320452
:4014C0004FF000054FF0000150E700BF90F0000F04BF0021704730B54FF4806404F1320410F0004548BF40424FF000013EE700BF42004FEAE2014FEA31014FEA02701FBFCD
:4015000012F07F4393F07F4F81F06051704792F0000F14BF93F07F4F704730B54FF4607401F0004521F0004120E700BF50EA010208BF704730B54FF000050AE050EA0102FC
:4015400008BF704730B511F0004502D5404261EB41014FF4806404F132045FEA915C3FF4DCAE4FF003025FEADC0C18BF03325FEADC0C18BF033202EBDC02C2F1200300FA3D
:4015800003FC20FA02F001FA03FE40EA0E0021FA02F11444C1E600BF70B54FF0FF0C4CF4E06C1CEA11541DBF1CEA135594EA0C0F95EA0C0F00F0DEF82C4481EA030621EA88
:4015C0004C5123EA4C5350EA013518BF52EA033541F4801143F4801338D0A0FB02CE4FF00005E1FB02E506F00042E0FB03E54FF00006E1FB03569CF0000F18BF4EF0010EA9
:40160000A4F1FF04B6F5007F64F5407404D25FEA4E0E6D4146EB060642EAC62141EA55514FEAC52040EA5E504FEACE2EB4F1FD0C88BFBCF5E06F1ED8BEF1004F08BF5FEA6D
:40164000500E50F1000041EB045170BD06F0004646EA010140EA020081EA0301B4EB5C04C2BFD4EB0C0541EA045170BD41F480114FF0000E013C00F3AB8014F1360FDEBFC2
:40168000002001F0004170BDC4F10004203C35DA0C341BDC04F11404C4F1200500FA05F320FA04F001FA05F240EA020001F0004221F0004110EBD37021FA04F642EB06013F
:4016C0005EEA430E08BF20EAD37070BDC4F10C04C4F1200500FA04F320FA05F001FA04F240EA020001F0004110EBD37041F100015EEA430E08BF20EAD37070BDC4F12005FD
:4017000000FA05F24EEA020E20FA04F301FA05F243EA020321FA04F001F0004121FA04F220EA020000EBD3705EEA430E08BF20EAD37070BD94F0000F0FD101F000464000EB
:4017400041EB010111F4801F08BF013CF7D041EA060195F0000F18BF704703F00046520043EB030313F4801F08BF013DF7D043EA0603704794EA0C0F0CEA135518BF95EA0D
:401780000C0F0CD050EA410618BF52EA4306D1D181EA030101F000414FF0000070BD50EA410606BF1046194652EA430619D094EA0C0F02D150EA013613D195EA0C0F05D10C
:4017C00052EA03361CBF104619460AD181EA030101F0004141F0FE4141F470014FF0000070BD41F0FE4141F4780170BD70B54FF0FF0C4CF4E06C1CEA11541DBF1CEA1355EB
:4018000094EA0C0F95EA0C0F00F0A7F8A4EB050481EA030E52EA03354FEA013100F088804FEA03334FF0805545EA131343EA12634FEA022245EA111545EA10654FEA0026CC
:401840000EF000419D4208BF964244F1FD0404F5407402D25B084FEA3202B61A65EB03055B084FEA32024FF480104FF4002CB6EB020E75EB030E22BFB61A754640EA0C0026
:401880005B084FEA3202B6EB020E75EB030E22BFB61A754640EA5C005B084FEA3202B6EB020E75EB030E22BFB61A754640EA9C005B084FEA3202B6EB020E75EB030E22BF4D
:4018C000B61A754640EADC0055EA060E18D04FEA051545EA16754FEA06164FEAC30343EA52734FEAC2025FEA1C1CC0D111F4801F0BD141EA00014FF000004FF0004CB6E7A7
:4019000011F4801F04BF01430020B4F1FD0C88BFBCF5E06F3FF6AFAEB5EB030C04BFB6EB020C5FEA500C50F1000041EB045170BD0EF0004E4EEA113114EB5C04C2BFD4EB3B
:401940000C0541EA045170BD41F480114FF0000E013C90E645EA060E8DE60CEA135594EA0C0F08BF95EA0C0F3FF43BAF94EA0C0F0AD150EA01347FF434AF95EA0C0F7FF472
:4019800025AF104619462CE795EA0C0F06D152EA03353FF4FDAE1046194622E750EA410618BF52EA43067FF4C5AE50EA41047FF40DAF52EA43057FF4EBAE12E74FF0FF3C96
:4019C00006E000BF4FF0010C02E000BF4FF0010C4DF804CD4FEA410C7FEA6C5C4FEA430C18BF7FEA6C5C1BD001B050EA410C0CBF52EA430C91EA030F02BF90EA020F00203A
:401A0000704710F1000F91EA030F58BF994208BF90422CBFD8176FEAE37040F0010070474FEA410C7FEA6C5C02D150EA013C07D14FEA430C7FEA6C5CD6D152EA033CD3D002
:401A40005DF8040B704700BF8446104662468C461946634600E000BF01B5FFF7B7FF002848BF10F1000F01BD4DF808EDFFF7F4FF0CBF012000205DF808FB00BF4DF808ED6C
:401A8000FFF7EAFF34BF012000205DF808FB00BF4DF808EDFFF7E0FF94BF012000205DF808FB00BF4DF808EDFFF7CEFF94BF012000205DF808FB00BF4DF808EDFFF7C4FFA7
:401AC00034BF012000205DF808FB00BF4A0011D212F5001211D20DD56FF47873B3EB62520ED44FEAC12343F0004343EA505323FA02F070474FF00000704750EA013002D1B1
:401B00004FF0FF3070474FF0000070474FF0FF3C06E000BF4FF0010C02E000BF4FF0010C4DF804CD4FEA40024FEA41037FEA226C18BF7FEA236C11D001B052EA530C18BF5A
:401B400090EA010F58BFB2EB030088BFC81738BF6FEAE17018BF40F0010070477FEA226C02D15FEA402C05D17FEA236CE4D15FEA412CE1D05DF8040B704700BF8446084643
:401B80006146FFE70FB5FFF7C9FF002848BF10F1000F0FBD4DF808EDFFF7F4FF0CBF012000205DF808FB00BF4DF808EDFFF7EAFF34BF012000205DF808FB00BF4DF808ED27
:401BC000FFF7E0FF94BF012000205DF808FB00BF4DF808EDFFF7D2FF94BF012000205DF808FB00BF4DF808EDFFF7C8FF34BF012000205DF808FB00BF0A22002100F0C6B8BC
:401C0000014B1868704700BF5081FF1F0E4B70B51E460E4C0025E41AA410A54204D056F8253098470135F8E700F08AFA084B094C1E46E41AA4100025A54204D056F8253059
:401C400098470135F8E770BD4C2100004C2100004C2100005421000010B5431E0A44914204D011F8014B03F8014FF8E710BD03460244934202D003F8011BFAE7704700003B
:401C80002DE9F0470F4680463F48D0F800903D4615F8014B09EB0400407800F0080000F0FF0608B12F46F2E72D2C03D1BD1C7C78012603E02B2C04BF7C78BD1C13B1102B73
:401CC0000AD15BE0302C57D1287800F0DF0058284DD16C7810230235002E14BF4FF0004C6FF0004CBCFBF3FA0027384603FB1ACC09EB040E9EF801E01EF0040F01D0303CB0
:401D00000BE01EF0030E1BD0BEF1010F0CBF4FF0370E4FF0570ECEEB0404A34210DDB7F1FF3F0AD0504506D801D1644503DC03FB0040012701E04FF0FF3715F8014BD7E709
:401D40007B1C0CD1002E4FF0220314BF4FF000406FF00040C8F800302AB9BDE8F08706B1404272B107B1691E1160BDE8F0873024002BB1D10823AFE70A23ADE7302CA3D003
:401D8000AAE7BDE8F08700BF5481FF1F13460A46014602480068FFF773BF00BF5081FF1F000000000000803F0000803F0000803F0000803F0000803F0000803F0000803F13
:401DC0000000803F0000803F0000803F0000803F0000803F0000803F0000803F0000803F0000803F33330000547269676765722068656967687420697320746F6F206869FA
:401E000067682120546865206D6178696D756D2068656967687420616C6C6F776564206973204D41585F545249474745525F4845494748542E0D0A005472696767657220EC
:401E400068656967687420697320746F6F206C6F772120546865206D696E696D756D2068656967687420616C6C6F776564206973204D494E5F545249474745525F48454942
:401E80004748542E0D0A0000526170696420747269676765722064697374616E636520697320746F6F20686967682120546865206D6178696D756D2064697374616E636572
:401EC00020616C6C6F776564206973204D41585F52415049445F545249474745525F44495354414E43452E0D0A000000526170696420747269676765722064697374616E00
:401F0000636520697320746F6F206C6F772120546865206D696E696D756D2064697374616E636520616C6C6F776564206973204D494E5F52415049445F54524947474552C6
:401F40005F44495354414E43452E0D0A000000004572726F723A20506C65617365206368616E67652074686520666F6C6C6F77696E672073657474696E6720696E20636FD5
:401F80006E6669672E6820616E6420666C61736820746865206669726D7761726520616761696E3A0D0A00000D510040005B00400D510040244300400D5100402443004054
:401FC0000D510040005B00400D510040244300400D51004024430040011002000400088020004000035B00402443004040000000205100401000405100403000F051004057
:402000001000000001400010001401400006801A0140800100400140000A004C01400002005001402000000060520040780200480600001A014080020048800043000020FB
:402040002020202020202020282828282820202020202020202020202020202020202088101010101010101010101010101010040404040404040404041010101010101048
:402080004141414141410101010101010101010101010101010101010101101010101010424242424242020202020202020202020202020202020202020210101010200012
:4020C00000000000000000000000000000000000000000000000000000000000000000000000000000000000000000000000000000000000000000000000000000000000E0
:40210000000000000000000000000000000000000000000000000000000000000000000000000000000000000000000000000000000000000000000000000000000000009F
:40214000F8B500BFF8BC08BC9E4670474D000000C9080000F8B500BFF8BC08BC9E4670472900000078210000C880FF1F9000000080000000000000000000000031090000D1
:402180004909000061090000790900000000E02EC05D00001800000000366E0101FF00000000000000000000000000000000000000000000000000000000000000000000F9
:4021C0003C20000000000000000000000000000000000000000000000000000000000000000000000000000000000000000000000000000000000000000000000000000083
:40220000F080FF1F3E2000000000000000000000000000000000000000000000000000000000000000000000000000000000000000000000000000000000000000000000B2
:40224000000000000000000000000000000000000000000000000000000000000000000000000000000000000000000000000000000000000000000000000000000000005E
:40228000000000000000000000000000000000000000000000000000000000000000000000000000000000000000000000000000000000000000000000000000000000001E
:4022C00000000000000000000000000000000000000000000000000000000000000000000000000000000000000000000000000000000000000000000000000000000000DE
:40230000000000000000000000000000000000000000000000000000000000000000000000000000000000000000000000000000000000000000000000000000000000009D
:020000040003F7
:0200000480007A
:4000000003650040040001400101014001030140010D0140011501406818014036190140101A0140451B014002440140024501400246014001470140024801400149014011
:40004000014C01400A4D014002500140880F8A728B3839803F4059045F012001B401EC10EC10081109100A060B400C110D140E0E110C1371140C16131703184019101BAC7B
:400080001E0C20202109220323D029DC2A082B222F20320F3440351F363037E038803A083B803E104061410446CB470E481C49FF4AFF4BFF4EF04F44500C54015804590472
:4000C0005A045B045C115D115F0166C06A406B0285448731887389018A0C8B0E8C738E049208942A956796449967A522A7D1A803AA44AE55B030B180B360B40FB507B64063
:40010000B718B802BA28BE41BF40C004C704C9FFCA07CBFFCC40CD20CEF0CF05D008D804D904DA04DC11DD01DF01E040E1A8E240E320012003010520070109080B800D08EE
:400140000E010F0811201201132015121604184019A81D081E091F48200221142340270928202F49331434043520370939283D103F804040460147014D2051015205530131
:400180005510560857445D805E085F22C0C3C2ECC453CAB2CCE6CE36D091D220D6F08602880192029401A001A804B001B204B402BE14D418D804DB04DC01DD10DF0100843F
:4001C000010802A0030805040704082009080A400D040F80100213291404170219021A091B481C401E642108228123042A022B2A310832A1382A3B4040444201430848015C
:40020000490453025A085D026680670469086B16701472027329804083208A948C219340980499089C209F14A043B042B114B208B302C06FC23EC45FCA0FCC0FCE0FD00F0C
:40024000D208D682D830EC107C01DE01B401EC084508D001A5082510C820B510A5081280750289028E80B508C408DE04E001E202EC0810021C0200008080000040000000B3
:40028000CC043300FF180000F3080C00330000040000B3404F1CB0A111BF0000001C00A208100000040000830CA700182200004030200F9840408C1F000208880000101009
:4002C00034020100050C00E021FFFFFF62A0F0410C00000000000212040404041111000100000000000040020010301000101012000000000000000000000000000000006E
:400300000000000000006F00800040808000800000000000000B0B0000000000000F0F0000000000670018010000000000000000000000000000000000000000000000005A
:40034000000000000000000000000000000000000000000000000000000000000000000000000000000000000000000000000000000000000000000000000000000000007D
:40038000000000000000000000000000000000000000000000000000000000000000000000000000000000000000000000000000000000000000000000000000000000003D
:4003C00000000000000000000000000000000000000000000000000000000000000000000000000000000000000000000000000000000000000000000000000000000000FD
:4004000000000000000000000000000000000000000000000000000000000000000000000000000000000000000000000000000000000000000000000000000000000000BC
:0200000490006A
:0400000000004005B7
:0200000490105A
:04000000BC90ACAF55
:0200000490303A
:02000000EA4CC8
:0200000490402A
:4000000000000000000000000000000000000000000000000000000000000000000000000000000000000000000000000000000000000000000000000000000000000000C0
:400040000000000000000000000000000000000000000000000000000000000000000000000000000000000000000000000000000000000000000000000000000000000080
:400080000000000000000000000000000000000000000000000000000000000000000000000000000000000000000000000000000000000000000000000000000000000040
:4000C0000000000000000000000000000000000000000000000000000000000000000000000000000000000000000000000000000000000000000000000000000000000000
:0200000490501A
:0C00000000012E16106900012E22FAB536
:00000001FF