:400000000080002011000000ED1C0000ED1C000008B5044B1A6803F53F5302331A6001F085FE00BFFA46004010B5054C237833B9044B13B10448AFF300800123237010BDE1
:400040006085FF1F00000000344C0000084B10B51BB108490848AFF300800848036803B910BD074B002BFBD0BDE81040184700BF000000006485FF1F344C0000C880FF1FCA
:400080000000000008B562B602F06CF902F0C0FB02F092FC02F0FAFB02F07AFC03F00CF803F038F802F040FD3C2001F09DFA01F051FA01F05DFA012001F0BCFA012001F00D
:4000C000C1FA002001F0C4FA2021002001F0ACFA0B4801F04BFC01F04BFA00F0C9FB00F015F800F0B7F8074B187800F051FD064C207801F021F8207800F0CEFDEFE700BF71
:40010000384C00000C86FF1F7C85FF1F2DE9F041002595E0284602F08BFB00248BE02E46274604EB44039A0005EB45010B011344464A13445B889BB2002B7AD0444B53F866
:40014000243001209847462001F086FE02F024FA80B204EB44039A0005EB45010B0113443A4A13445B889BB2073B984252DA04EB44039A0005EB45010B011344334A134415
:400180009B889BB2073B984213DA964661000B194FEA830C6A0002EB05084FEA081398466344734498804346634401220EF803203AE0610021448A00690029440B01134472
:4001C000224A1A4493889BB2C31A073BD28892B2934229DDDFF874E061000B194FEA830C6A0002EB05084FEA081363440EEB030C4FF000080EF80380BCF806309BB2C01A75
:4002000080B221444FEA810C1644330163447344988009E004EB44039A0005EB4506330113440021094AD154094B53F82730002098470134E4B2032C7FF671AF0135EDB2EC
:40024000032D7FF667AFBDE8F08100BF1086FF1FCC80FF1F10B4002119E003EB4302900001EB4104220102440B48825C12F0FF0F05D003EB8103DBB2084A137005E0013392
:40028000DBB200E00023032BE7D90131C9B20329F8D910BC704700BF1086FF1F0C86FF1F2DE9F84305460C46164633BB03F054FA02460B461AA1D1E9000103F0EDF880464A
:4002C0008946301B03F036FA15A3D3E9002303F0C1FB02460B464046494603F091FA06460F46204603F026FA32463B4603F0D6F803F020FD80B2BDE8F883501A03F0F4FDCB
:40030000294603F045FE03F027FA05A3D3E9002303F0A0FB03F00EFD80B2BDE8F88300BF6666666666660E402DE9F843002630E0304602F07DFA002427E0DFF8209259F8C3
:40034000243001209847462001F086FD02F024F980B27E4F4FEA440808EB04039A007500A9190B0113443B44188159F8243000209847A0444FEA880235442B0113443B44B0
:400380004FF4FA629A800134E4B2032CD5D90136F6B2032ECCD96E4C204602F091FA01F0D9F801F0E5F82821002001F03DF9204601F0DCFA01F0DCF84FF00008BFE040460C
:4003C00002F036FA0027B3E045463C46614E3B4642466149304604F001F8304602F070FA01F0B8F801F0C4F82821002001F01CF9304601F0BBFA01F0BBF8584B53F82730BB
:4004000001209847462001F027FD002645E002F0C3F882B2B2F5FA6F30D204EB4403990005EB450003010B4448490B449B889BB29A4232D204EB4403990005EB4500030174
:400440000B4442490B449A80DFF808914449484603F0C4FF484602F033FA01F07BF801F087F82821002001F0DFF8012001F0E2F8484601F07BFA01F07BF80EE004EB4403DE
:400480009A0005EB45010B011344304A13449B889BB2B3F5FA6F00D20126002EB7D004EB44039A0005EB45010B011344274A13449B889BB2B3F5F96F30D8104661000B1975
:4004C0009A006E0006EB050E4FEA0E13134403449A8892B25A815A8921444FEA810E35442B01734403441B891A4D9BB292B21D49284603F073FF284602F0E2F901F02AF8E1
:4005000001F036F82821002001F08EF8012001F091F8284601F02AFA01F02AF8012001F085FC0E4B53F82430002098470137FFB2032F7FF649AF08F101085FFA88F8B8F1F5
:40054000030F7FF63CAFBDE8F88300BF1086FF1FC84C0000BC85FF1F084D0000CC80FF1F284D0000384D00002DE9F04F87B005920027BA468B468146B84671E04FEA0A15C1
:4005800009EB0503274653F82460A949304603F0FFFC03F0C3FE80B2A64BA3FB00239B0803EB8303C31A9BB29BB90BEB0503A04953F8240003F0ECFC03F0B0FE80B29D4B94
:4005C000A3FB00239B0803EB8303C31A9BB21BB904E04FF0FF3801E04FF0FF38304603F0BBF8CDE902018EA3D3E9002303F098FB20BB8DA3D3E90023DDE9020103F072FBF6
:4006000020B10021304603F057FED0B15D4455F827508949284603F077FEA8B9284603F09BF881A3D3E9002303F05CFB78B90134E4B200E00024032CA0D90AE04FF0010800
:4006400007E04FF0020804E04FF0030801E04FF00408B8F1000F06DC0AF1010A5FFA8AFABAF1030FE6D94746059A1378032B0BD85278032A0AD809EB0313002153F82200BE
:4006800003F01AFE20B904E0052702E0072700E00927002F40F0BE80BFE07B1C0B2B7FD8DFE803F0067E0E19232A31374B516579052300226149624803F090FE00276FE09D
:4006C0000823019303230093234652465D495C4803F084FE64E0002301930093234652465949574803F07AFE5AE0032300225749534803F073FE53E000231A46544950487B
:4007000003F06CFE4CE0032252494D4803F066FE46E0DFF850E14A4D0EF1300C76460FCE28606960AA60EB60B64610356645F5D13288B3782A80AB7032E00322464940489B
:4007400003F04CFE2CE0DFF820E13D4D0EF1300C76460FCE28606960AA60EB60B64610356645F5D130682860B388AB8018E0DFF8FCE0334D0EF1300C76460FCE28606960CC
:40078000AA60EB60B64610356645F5D13288B3782A80AB7004E079223049294803F00AFE274D284602F08CF800F0D4FE00F0E0FE2821002000F038FF012000F03BFF2846F3
:4007C00001F0D4F800F0D4FE40F6C41001F02EFBE7B14B222249284603F0ECFD284602F06FF800F0B7FE00F0C3FE2821002000F01BFF012000F01EFF284601F0B7F800F0E0
:40080000B7FE40F6C41001F011FB03E04FF47A7001F00CFB002F7FF440AF07B0BDE8F08F6666666666660E409A9999999999A93F0000C842CDCCCCCC000070404C4D0000D3
:40084000BC85FF1F9C4D0000044E0000684E0000C04E0000184F00009C4F000058500000D4500000684F0000EC4F0000245000002DE9F043A7B0BF4C16AD26460FCE0FC50B
:400880000FCE0FC50FCE0FC596E80F0085E80F0006AD40340FCC0FC50FCC0FC50FCC0FC594E80F0085E80F0003238DF814308DF8153005AA06A916A8FFF756FE002002F061
:4008C0007FF818B9FFF730FD01246AE0AA4C9DF815309DF81420A949204603F07FFD204601F0EEFF00F036FE00F042FE2821002000F09AFE012000F09DFE204601F036F804
:4009000000F036FE9DF8140001F092FF9DF815209B4B53F8223001209847002435E001F03BFEB0F5FA6F2EDA964801F0C9FF00F011FE00F01DFE2821002000F075FE012014
:4009400000F078FE904801F011F800F011FE002408E001F021FEB0F5FA6F03DD642001F065FA0124002CF4D09DF8140001F0E0F89DF81520824B53F8223000209847FFF7B2
:40098000D3FC012406E00134A4B245F699339C42C5D900249DF81520794B53F8223000209847002C3ED1002678E0AB00774E680042199700610001EB040E4FEA0E123A4448
:4009C00032445789C7F307270DF1980E9E440EF8947C5F1CB2F80AE00DF1980C674407F894EC9F1CB2F808E0CEF3072E62463A4402F894EC03332844870021440A013A4448
:400A000032441289634403F8942C0135EDB200E00025032DC9D9214601A801F0E5FF0134E4B200E00024032CF2D939E005EB8604A400A4B2204601F0C3FF000287B2601C8C
:400A400080B201F0BDFF384387B2A01C80B201F0B7FF00021FFA80F8E01C80B201F0B0FF48EA000080B2DFF824E16C0062199300710001EB060C4FEA0C1294461A4472447F
:400A800057811C4663462344734418810135EDB200E00025032DC9D90136F6B2032EF8D9002762E03D46264604EB870326AA02EB830353F8409C0021484603F0FDFB48BB37
:400AC000620022444FEA82087A003A44130143442E4A02EB0308B8F80A10B8F80820002392B289B24846FFF7DBFBA8F80200B8F80A10B8F8082004EB870026AB03EB8000D1
:400B0000012392B289B250F8800CFFF7C9FBA8F806000AE004EB44039A0007EB47010B0113441A4A134400225A8018494FEA460C0CEB060293004FEA450E0EEB05000201C5
:400B40001A448B18002088545A8892B26644B00075442B0103440B449A800134E4B200E00024032C9ED90137FFB2032FF8D927B0BDE8F083484C0000BC85FF1F20510000AF
:400B8000CC80FF1F4C510000745100001086FF1F034B1B78DBB2834201D0014B187070477C85FF1FF8B538498B78DCB2CA78D2B2098889B202EB4200830004EB44052801A3
:400BC00005461844314B184403899BB2994209D902EB420399002B460B442C490B44198989B216E002EB4203980004EB44052B011D460344254803445B899BB2994208D24C
:400C000002EB420399002B460B4420490B44598989B21E4D4FEA420E0EEB0200830067003E1930011844284443899BB2C91A4FF47A7606FB01F1A1F5FA61038998B272448C
:400C400096003B191A0132442A4453899BB2C31A91FBF3F303F57A739BB20D4A1380B3F5FA6F04D94FF4FA62094B1A8006E0B3F57A7F03D24FF47A72054B1A80044B188818
:400C800001F05EFEF8BD00BFD086FF1F1086FF1FDC80FF1F00000000F0B585B0A04B9A78DB78DCB20B2800F26181DFE810F00C0034003C0082008E00A400C800EB00F30075
:400CC000FA000D01200196490A888B889BB2888880B2CC68CD689349A1FB0363924FA7FB05E6760B42F2107E0EFB16550295A7FB0454640B0194A1FB0041C90801EB81019B
:400D00004C00001B80B20090DB0892B28749884803F064FB33E1824B1A8892B28549844803F05CFB2BE1D5B27D4F3A8892B281497F4803F053FB00F00DFCDFF82CE2600051
:400D4000021993006A0056193101194471440E89B6B2498989B2711A4FF4485393FBF1F63B8899B203199C002A4410012044704443899BB2CB1A03FB06F31BB2B3F5485F50
:400D800002DC002B04DA02E04FF4485300E00023694A82FB0312DB17C3EB621201230093182312B22821002000F0EAFC00F0E0FBE5E0FFF7F7FE5A4B1A88604B1B8892B2E7
:400DC0005F495B4803F00AFBD9E0554B9A8892B29B889BB25348A0FB0341C90801EB81014C001B1BA0FB02129BB2D2085549504803F0F4FAC3E04A498B889BB203EBC3030F
:400E0000514A82FB0302DB17C3EB620303F5A0739BB28B808A8892B28B889BB24148A0FB0341C90801EB81014C001B1BA0FB02129BB2D20845493E4803F0D0FA9FE0384CA4
:400E4000A08880B202F076FC33A3D3E9002302F025FB02F06FFF80B2A080A28892B2A3889BB23048A0FB0341C90801EB81014C001B1BA0FB02129BB2D20835492C4803F082
:400E8000ADFA7CE0264B9A8892B23249284803F0A5FA74E0224B9A682F49254803F09EFA6DE01F4BDA68DB681F48A0FB0341490BA0FB020242F2107000FB1133520B274973
:400EC0001B4803F08BFA5AE0154B1A691B691648A0FB0341490BA0FB020242F2107000FB1133520B1E49124803F078FA47E00C4B1A691B690C48A0FB0341490BA0FB020225
:400F000042F2107000FB1133520B1649084803F065FA34E0AFF30080000000000057A540D086FF1FCDCCCCCC5917B7D19C510000BC85FF1FE05100001F85EB51DC80FF1F7A
:400F4000F451000018520000676666663052000048520000605200007852000094520000B8520000D85200001086FF1F0E4D0F4C0FCC28606960AA60EB6023882B820A48E2
:400F800001F09EFC0A4B1B78DBB2022B0AD000F0E1FA2821002000F047FB034800F0E6FC00F0E6FA05B0F0BDBC85FF1FF85200007C85FF1F70B506460C4601F039FC0A4D6D
:400FC00055F8243001209847462000F045FF01F0E3FA80B2054B18809E70DC7055F824300020984770BD00BFCC80FF1FD086FF1F08B50121022001F09DFA042001F018FC58
:40100000462000F029FF01F0C7FA01F081FA80B2034B98800121084601F08CFA08BD00BFD086FF1F00000000F8B53D4B1B7863B9002001F0C9FF0A2000F00EFF012001F0A7
:40104000C3FF0122364B1A70F8BD0446354B1B7813F0FF0F52D00023324A1370304A137001F0DAFF304D6861012002F061F86B69C3F5DB0303F5BA432C4AA2FB03231B09E4
:40108000AB60012C10D1A86802F044FB1CA3D3E9002302F0B5FB1CA3D3E9002302F0B0FB02F048FEE860F8BD022C27D11E4CA08880B202F03FFB16A3D3E9002302F0A0FBEB
:4010C00000221B4B02F0C6FC13A3D3E9002302F0E5F90022174B02F093FB06460F46A06802F018FB32463B4602F08AFB06A3D3E9002302F085FB02F01DFE2061F8BD00BF31
:4011000011363CBD5296913F000000000088C340691D554D10750F3F7E8CB96B09F9A03F7D85FF1FA585FF1FD086FF1FABAAAAAA000024400000E03F10B50446012001F0F9
:40114000F7FF0B2C4ED8DFE804F006101B26313131313A3E424800210846FFF72BFFFFF747FF0120FFF760FF10BD01210020FFF721FF012001F0DCFF00221B4B1A7010BD12
:4011800002210020FFF716FF012001F0D1FF0022154B1A7010BD03210020FFF70BFF012001F0C6FF0022104B1A7010BDFFF720FF012001F0BDFF00220B4B1A7010BD002065
:4011C000FFF732FF10BD0120FFF72EFF10BDFFF70FFF0220FFF728FF10BDFFF709FF0220FFF722FF10BD00BFA585FF1F83B27F2B3CD800293ADB3F2938DC012A03D09AB1D9
:40120000022A23D070471A4A0B46002900DACB1DDB1000EBC31001F00701012303FA01F1135C194311547047114A0B46002900DACB1DDB1000EBC31001F00701012303FA42
:4012400001F1135C23EA010111547047084A0B46002900DACB1DDB1000EBC31001F00701012303FA01F1135C59401154704700BFE180FF1FF0B5BDF81440904267D10D4632
:40128000002900DACD1DED1000EBC510444F07441846002B00DAD81DC01002EBC012404810443A4650E0BA4218D13E4D0D4003D5013D65F007050135EEB2F5186D1AEDB2F6
:4012C000062D00D90725AD1B01354FF0010E0EFA05F5013D05FA06F6F6B20EE082420CD1304D1D4003D5013D65F0070501352DB2012606FA05F56E1EF6B2BA4201D08242AC
:4013000012D1012C03D034B1022C09D01BE015783543157017E0157825EA0605157012E01578754015700EE0012C03D02CB1022C06D008E0FF25157005E00025157002E0AC
:401340001578ED43157080328242ACD9F0BD0B46002900DACB1DDB1000EBC313104D2B44121A1A4401F00701012000FA01F1CDB212E0012C03D034B1022C09D00BE0187867
:401380002843187007E0187820EA0100187002E018786840187001339342EAD9F0BD00BFE180FF1F07000080B1F90020154B1B78022B0CD0032B19D0012B21D1B0F900307C
:4013C0000B80114B1B889A1A013A02807047B0F900200D4B1B889B1A013B0380B1F900200A4B1B889B1A013B0B80704710B4B0F90040064B1B881B1B013B0B80028010BC22
:40140000704700BFEA86FF1FE886FF1FEC86FF1F10B584B0ADF80E00ADF80C10ADF80A20ADF80830904203D009B21BB2994271D1394B1B78012B01D0032B1AD1002869DB90
:40144000364BB3F90030984264DA002A62DB9A4260DABDF90C30002B5CDB314AB2F90020934257DABDF90830002B53DB9A421ADC50E0BDF90C30002B4CDB2849B1F9001022
:401480008B4247DABDF90830002B43DB994241DD00283FDB224BB3F9003098423ADA002A38DB9A4236DA03A90DF10E00FFF77CFF02A90DF10A00FFF777FFBDF90E30BDF97A
:4014C0000A20934205D1BDF90800BDF90C10884207DBBDF90C00BDF9081088420DD193420BDDADF80E20ADF80A30BDF90C30BDF80820ADF80C20ADF80830BDF90830BDF913
:401500000A20BDF90C10BDF90E00BDF818400094FFF7B0FE04B010BDEA86FF1FEC86FF1FE886FF1FF8B507460E460021084B187801F0A2FC0024FF2504E0385D01F00EFDDD
:4015400005460134B442F8DB01F0E0FC2846F8BD7E85FF1F10B5054C4FF480620021601C02F033FF4023237010BD00BFE080FF1F00B583B00A4B186800909A889B79ADF8ED
:4015800004208DF8063007216846FFF7CBFF40F201410448FFF7C6FF03B05DF804FB00BF0C530000E080FF1F0A4B18800A4B19800A4B58809980002209490A70DA801A8194
:4015C00001229A724FF6FF719981D981054B1A70704700BFE886FF1FEC86FF1F7E85FF1FEA86FF1FEE86FF1F30B589B00C4B187040218020FFF7D8FF01AC0A4D55F8080FB3
:401600006968AA68EB680FC42869696903C42B8B23801A2101A8FFF785FF09B030BD00BF7E85FF1F0C530000014BD880198170477E85FF1F08B90120FFE7014B98727047F0
:401640007E85FF1F014B9881D88170477E85FF1F014B9881704700BF7E85FF1F10B582B0ADF80600ADF80410002819DB0D4BB3F90230984214DA0BB2002B11DB0949B1F972
:4016800004108B420CDA144601A90DF10600FFF78BFE2246BDF90410BDF90600FFF7A6FD02B010BD7E85FF1F2DE9F04F85B005460E461746BDF838200292B84201D09942E8
:4016C00007D1029A00923A4631462846FFF7A0FE52E0C1EB0308B8F1000FB8BFC8F10008C0EB0709B9F1000FB8BFC9F10009C84504DD3A461F4613460D460646BD4205DDB8
:4017000032461E4613462A463D461746C5EB070B1FFA8BFB0FFA8BF4C6EB030ABAF1000FB8BFCAF1000A04EBD47464109E4202DA012303931EE04FF0FF3303931AE0C8455A
:4017400005DD029A29463046FFF788FF04E0029A31462846FFF782FFCAEB0404A3B21CB2002C05DA039A164436B20BEB030424B201352DB2BD42E2DD05B0BDE8F08F00BFA5
:401780002DE9F04383B005460E4617469846BDF8289093420FDC0C461EE006EB0803013BCDF800901BB2224631462046FFF77CFF013424B200E00446EB199C42EDDB0FE078
:4017C000EA19013ACDF80090234612B221462846FFF76AFF013424B206EB08039C42EFDB03B0BDE8F08300BF2DE9F04F85B0BDF838B09DF83C60364CB4F90240844263DDED
:40180000334CB4F904408C425EDD06EB46056C000444012C58D401EBC604012C54D4984603928A46814600274CE0052F08D0039B03EB83033B44274A134493F8245000E03A
:40184000002500243AE015F0010F19D0012E09D104EB0A0107EB0900424609B200B2FFF7FDFE28E0B0B232B204FB00A107FB0090CDF80080134609B200B2FFF781FF1AE028
:40188000D84518D0012E09D104EB0A0107EB09005A4609B200B2FFF7E1FE0CE0B0B232B204FB00A107FB0090CDF800B0134609B200B2FFF765FF6D08013464B2072CC2DDB8
:4018C00001377FB2052FB0DD05B0BDE8F08F00BF7E85FF1F0C5300000A2808D11A4B997A1A8902EBC1021A810022DA8070470D28FCD030B583B00246134CE389B4F9081011
:40190000B4F90600A57A0195A5890095FFF76CFFA27A91B201EB41035800E38803441BB2E3800A48007868B1A2EB82025000B4F902201044834205DD228902EBC101218148
:401940000022E28003B030BD7E85FF1FEE86FF1F70B5064602F066FD0546002403E0305DFFF7BAFF0134AC42F9D370BD08B5FFF7EFFF0A20FFF7B0FF08BD00BFFEE700BF88
:40198000F0B40022174611E050F82760F3B226F0FF0608E001EB420511F812406D78A5550132013BDBB2002BF4D10137212FEBD9F0BC7047064B1B78DBB203F00701054AD9
:4019C00011701B09013213704422034B1A707047CF0100496E5800407658004008B50A46002102F0F2FC08BD08B502F0E3FC08BD38B50024344B1C80502202331A700E22B7
:401A000002331A801823314A1370172102321180023213704D21023211800232137004222B492C48FFF7E0FF02222B4B1A7008224FF040231A70032103F500731970274B19
:401A40001B78DBB226490B70264B1A8041F25122023B1A8019250CE0234B1B7803F0010343EA440404F003044FF4F07001F068FB013D0DB1032CEFD115B90320FFF77EFFFC
:401A80001A4B4FF480721A8007221A70002218490A704820023108701A700222033B1A7004220A331A70134A137843F00F031370013A137843F001031370013A137843F0A3
:401AC0008003137038BD00BF8040004086400040D0090048004100400043004008010049A146004022420040254200400440004006400040A2430040042816D810B44000F0
:401B0000C0B20A4B53F820101A1892F828400A7822430A700130C0B253F82020184490F8281013780B43137010BC70472C580000042818D810B44000C0B20B4B53F82010CE
:401B40001A1892F828400A7822EA04020A700130C0B253F82020184490F82810137823EA0103137010BC70472C580000012809D8054B03EB8002526B184490F83C10137881
:401B80000B431370704700BF2C58000001280AD8054B03EB8002526B184490F83C10137823EA0103137070472C58000038B572B63A4A137843F00403137000240CE03848D7
:401BC00063001A19510001440A46B1F84410106CFFF704FF0134E4B2072CF0D900240CE02F48A20011194B000344B3F87820596F186FFFF7F9FE0134E4B2012CF0D9294999
:401C00004FF09040FFF7BCFE0A25274B1D70274A137843F0020313701032137843F002031370234C237843F040032370A2F58632513A137843F0100313702A461D491E48FB
:401C4000FFF7D2FE2A461D491D48FFF7CDFE08221C491D48FFF7C8FE08221C491C48FFF7C3FE08221B491C48FFF7BEFE1B4A137843F0080313701A4D61232B70FFF7B8FEC1
:401C800081232B700122174B1A70FFF793FE0E2221461548FFF7A8FE38BD00BFE84600402C580000880000488358004003500140A0430040A009004800510040AC090048F8
:401CC000C0510040B809004812510040C009004822510040C809004832510040224300400048004004000840B043004008B502F035FB03680C2B00D1FEE7FEE708B5094B6E
:401D00001A681044084BC31A802B02DC054B186005E002F023FB0C2303604FF0FF32104608BD00BFE484FF1F1087FF1F08B5104E104D16E029686B68AC68002204E051F80B
:401D4000040B43F8040B0432A242F8D1E868002203E0002143F8041B04328242F9D11035013E002EE6D102F0FFFAFEF78BF9FEE7010000000C59000008B5104A104B1A608F
:401D8000104A136843F40073136000230AE0032B03D80D4A52F8231000E00C490C4A42F8231001332F2BF2D90A4B1A780A4B1A70074A0A4B1A60FFF7F9FE08BD0004FA055B
:401DC0000CED00E014ED00E000000000ED1C00000080FF1FBC760040C080FF1F08ED00E0044A137803F0FD03400000F0020018431070704730510040044A137803F0FB03C2
:401E0000800000F0040018431070704730510040044A137803F0F703C00000F008001843107070473051004001BE704710B5044605E0084B186801F083F9A4F50044B4F5DA
:401E4000004FF6D8034B586800FB04F001F078F910BD00BFE884FF1F08B5034B1B7A00FB03F001F06DF908BDE884FF1F70B504460E46074B1D681F2802D90020FFF7D4FFF7
:401E800004F01F04103455F8240045F8246070BD08ED00E038B504460D46072902D90020FFF7C2FF1F2C02D90020FFF7BDFF04F01F0000F1604000F564406D01EDB2057070
:401EC00038BD00BF38B59DF810506C1EE4B2012C51D8013809282ED8DFE800F0052D2D052D2D0F192D230F2B03D92548007840B222E02448007840B21EE00F2B03D9224836
:401F0000007840B218E02148007840B214E00F2B03D91F48007840B20EE01E48007840B20AE00F2B03D91C48007840B204E01B48007840B200E0002001EB401101FB02F128
:401F4000C90B8AB20D2B0BD8C3F10E0289B211418AB2691E124800EB810101338B7005E06B1E0F4901EB83030F219970013D0C4B23F8252038BD0020FFF756FF38BD00BFB2
:401F8000180100491C010049190100491D0100491A0100491E0100491B0100491F0100499085FF1FF8B5074601F0D2F806460D4D2B7843F003032B700B4C237843F00303C5
:401FC00023700A4B1F700320FFF746FF2B7803F0FC032B70237803F0FC032370304601F0BBF8F8BDF8460040F946004092580040F8B504460022624B1A7201285ED13422C6
:40200000604B1A70062202331A7009235E4A1370002601321670013216701F21013211703921023211700721013211700132167001250A321570142102F5276211700132AD
:4020400013700A27514B1F7001331E70112203331A70122201331A7001331D70022202331A70222201331A70282201331A70EB2201331A705A20FFF795FF5822444B1A70CA
:4020800001331E70052205331A7001331D7001331E7001331F70284600F0A6FA40F266623C4B1A602946284600F0C2FA2946032000F042FB38491D20FFF7D8FE022C5DD108
:4020C0003422304B1A70042202331A70062201331A70002401331C7001331C703F2201331A7002331C7001331C7001331C7001250A331D70502203F527631A700A220133E8
:402100001A702C2201331A7001331C70442203331A70482201331A7001331D70022602331E70122201331A70282201331A70EB2201331A705220FFF735FF5822144B1A708B
:4021400001331C70052205331A7001331E7001331C7001331C70204600F046FA43F233320C4B1A602946284600F062FA2946082000F0E2FA09491D20FFF778FEF8BD00BF78
:402180009085FF1F004E0040034E00408658004094580040F086FF1FC1250000C5250000F0B583B02D4D01272F702D4E00247472102000F02BFA102000F0ACFA07211D2011
:4021C000FFF768FE0422274B1A7001331C7007331C70254A137843F018031370234B1C7003F2F5231C7001331C700A22A3F209331A7001331C7002331C70122205331A70BF
:40220000132201331A7004331C701422A3F68C231A7000970C234FF4004248F6B6513846FFF750FE0220009010234FF4004248F6F051FFF747FE2B78013B06EB83039A7802
:402240000B4B1A702B78013B36F82320094B1A802878FFF7CDFE03B0F0BD00BFF884FF1F9085FF1F96580040075B0040935800400E4E00400C4E004010B500F069FF04465B
:40228000314B1A78D2B2314B197841F001011970197841F0100119701033197841F001011970197841F01001197029490B7843F002030B7001310B7843F002030B7001F575
:4022C0008C5118310B7843F003030B70012A04D1204A137843F0080313700320FFF7BCFD1B4A137803F0FD0313700132137803F0FD03137002F58B521E32137843F0060374
:4023000013707A22144B1A70144A137843F0010313701032137843F0010313700F3A137843F0010313701032137843F0010313704FF000530A4A1360A2F5C072136020465B
:4023400000F00AFF10BD00BFF884FF1FAA430040F84600409258004082580040A143004080E200E008B5084B9B7A4BB9064BDB7A13F0FF0F01D1FFF713FF0122024B9A72B3
:40238000FFF77AFF08BD00BF9085FF1F70B500F0DFFE0646314A137803F0FE0313700132137843F0040313702D4D2B7843F002032B702C4C237843F00203237002F5296271
:4023C000137803F0FC0313700132137803F0F70313700320FFF740FD2B7803F0FD032B70237803F0FD0323701F4B1A7802F0EF021A701A7802F0FE021A7010331A7802F0C9
:40240000FE021A701A7802F0EF021A70174A137803F0F9031370A2F5A652163A137803F0FE0313701032137803F0FE03137002F5A6521132137803F0F7031370A2F5A752D3
:40244000137803F0FE0313701032137803F0FE031370304600F080FE70BD00BF004E0040F8460040F9460040AA43004077580040024A137843F0010313707047004E0040A9
:40248000024A137803F0FE0313707047004E0040094B1B7A13F0FF0F03D0074B5B7ADBB203E0064B1B7803F00103012B01D00028EED01846704700BF9085FF1F014E0040D1
:4024C0000E4B1B7803F00303012B03D80C4B188880B209E00A4A12780A49087842EA0020032B01D1084B1B78084B1B7A13F0FF0F02D00022054B5A7200B27047144E0040E7
:40250000104E0040114E0040124E00409085FF1F064BDB68C01A4FF47A7303FB00F0044B1B6890FBF3F000B2704700BF9085FF1FF086FF1F38B5431EDBB2012B20D8044687
:402540000D46114B9B7A13B901220F4BDA720F4B1C70FFF71BFF2046FFF74AFD013C0A4B03EB840291780A4A117033F82420094B1A80012D07D1FFF7F5FEFFF779FF38BDD6
:402580000020FFF751FC38BD9085FF1FF884FF1F0E4E00400C4E004010B5084A137843F004031370FFF764FF0020FFF771FFFFF787FF0446FFF764FF204610BD014E0040A1
:4025C000704700BF704700BF10B5002404E02046FFF7DCFA0134E4B2012CF8D9FF22014B1A7010BDF984FF1F10B50446FFF7ECFF2046FFF7BBFA014B1C7010BDF984FF1F87
:40260000014B188880B2704780400040034B1A7800F0F80010431870704700BF82400040024B187800F00700704700BF8240004070B505460E46FFF7F3FF0446FFF7E0FF93
:40264000A84256D02B4B1B7803F0010294B900B185B938B9284B1D80284A137803F0BF03137070BD254A137843F040031370224B1D8070BD22B3002321490B7001240F3140
:402680000C7004310B700C390B7803F07F030B701A4B1B7813F0080F00D08DB9194B18800721013B1970164B1B7813F0010FFAD110490B7803F0FE030B700021104B197003
:4026C0000C4B1B7813F0010F0DD00E4B1D800EB1032200E001220A4B1A70094B1B7813F0010FFAD170BD044B1D8002490B7813430B7070BDA2430040804000408240004073
:402700000140004002400040014B188880B2704700410040034B1A7800F0F80010431870704700BF02410040024B187800F00700704700BF0241004070B505460E46FFF71D
:40274000F3FF0446FFF7E0FFA84256D02B4B1B7803F0010294B900B185B938B9284B1D80284A137803F0BF03137070BD254A137843F040031370224B1D8070BD22B3002378
:4027800021490B70012413310C7004390B7008390B7803F07F030B701A4B1B7813F0080F00D08DB9194B18800721013B1970164B1B7813F0010FFAD110490B7803F0FE0330
:4027C0000B700021104B19700C4B1B7813F0010F0DD00E4B1D800EB1032200E001220A4B1A70094B1B7813F0010FFAD170BD044B1D8002490B7813430B7070BDA1430040F5
:402800000041004002410040014000400240004010B5002404E02046FFF78AF90134E4B2042CF8D9FF22014B1A7010BDFA84FF1F10B50446054B1878FF2801D0FFF778F96B
:402840002046FFF759F9014B1C7010BDFA84FF1F0622044B1A70472210331A70002251331A7070472C64004010B500F071FC0446054A137843F01003137000F033F82046EB
:4028800000F06AFC10BD00BF9D64004008B5054B1B7823B9FFF7DCFF0122024B1A70FFF7E3FF08BDA085FF1F034B1B7813F0040FFAD1024B187070476D6400404D6400407E
:4028C00038B5074B1B782BB938BDFFF7EDFF0134A4B201E005460024285D0028F5D138BDA085FF1F054A137843F0080313701032137843F008031370704700BFA243004001
:40290000044A137803F0FE0300F0010018431070704700BF30510040024A137843F080031370704775640040014B1880704700BF00680040014B1880704700BF8068004063
:40294000014B1880704700BF4068004008B50F4A137803F0C00343F0090313701B32137843F0010313700132137843F00103137044F62060FFF7D8FF44F62060FFF7DAFFE2
:402980004FF4FA60FFF7DCFF08BD00BF7564004008B5054B1B7823B9FFF7D8FF0122024B1A70FFF7B9FF08BDA285FF1F08B500F02DFC00F035FC08BD08B5FFF7F7FF08BDE7
:4029C00038B5044600F0C4FB054600F053FC04F1804000F500400478E4B200F059FC284600F0BAFB204638BD38B504460D4600F057FC15F0800F48D100F0EAFC002846D129
:402A000010222146402000F077FC07282FD1214B1B7813F0020FFAD01E4B1B7813F0020F06D01C4B1B789B0805D04FF0FF3403E04FF0FF3400E00024E4B9174A53781278B8
:402A40002946402000F080FC072816D1114B1B7813F0020FFAD00F4B1B7813F0020F0FD00C4B1B789B080DD04FF0FF340AE04FF0FF3407E04FF0FF3404E04FF0FF3401E090
:402A80004FF0FF3400F0CAFC02E0012400E00424204638BD224700400887FF1F38B50024144B1C70012510331D7000F051FB124A137843F01003137000F04EFB0F220F4B8C
:402AC0001A70082210331A7002220D4B1A6007212846FFF7DFF90B492846FFF7C7F91022094B1A70094B1C70094B1C70094B1C7038BD00BF776500409765004026640040FD
:402B000080E100E0512B0000F486FF1FFA86FF1F0287FF1FF886FF1F024A137843F00203137070477765004008B5074B1B7823B9FFF7B4FF0122044B1A70FFF7EDFF0222D1
:402B4000024B1A6008BD00BFA385FF1F00E100E038B5AC4B1C78AC4B1B7813F0400F00F07B81E4B214F0010F00F04281A64B1B78453B052B00F23981DFE813F00600920024
:402B8000370137010600F90004F0DF0504F00A04082C50D19C4B1B78DBB2452B3DD19B4B1B7813F0FF0F16D0994B1B681B78DBB2984A13700622984B1A70FF22633B1A70B8
:402BC000002240331A700122944B1A7046228E4B1A702C460CE1924B1B7813F0020F0CD0904A137843F00A0313706022864B1A7002228D4B1A602C46FAE08C4A137843F045
:402C0000200313705222844B1A70FF22633B1A70002240331A702C46EAE002227E4B1A70FF22633B1A70002240331A704A22764B1A702C46DCE00A2C2DD17A4A137843F003
:402C4000A0031370764B1B7813F0020F13D06E4B1B7813F0080F01D0092300E00A23714A11780B4313706022674B1A7002226E4B1A602C46BCE06D4A137843F02003137020
:402C80005222654B1A70FF22633B1A70002240331A702C46ACE00020FFF7C6F82C46A7E014F0020F3ED15D4B1A78D2B2574B1B78DBB29A4216D2594A1378DBB25449096802
:402CC000CB5CDBB253490B700621534B1970FF21633B197000214033197013780133DBB2137085E04E4B1B7813F0020F0BD04D4A137843F00A0313706022434B1A70022265
:402D0000494B1A6074E0494A137843F0200313705222414B1A70FF22633B1A70002240331A7065E03E4B1B7813F0020F0BD03D4A137843F09A0313706022334B1A700222E5
:402D4000394B1A6054E0394A137843F0200313705222314B1A70FF22633B1A70002240331A70304A137843F09003137040E0304A1378DBB22F49086826490978C9B2C154F0
:402D800013780133DBB213701278D2B22A4B1B78DBB29A4209D202221F4B1A70FF22633B1A70002240331A7022E01D4B1B7813F0020F0BD01B4A137843F00903137060224A
:402DC000114B1A700222184B1A6011E0174A137843F02003137012220F4B1A70FF22633B1A70002240331A7002E00020FFF71CF814F0200F38D0044B1B7813F0080F1DD086
:402E000001231CE067650040F486FF1FF986FF1F0487FF1F0465004077650040F886FF1F0087FF1FFA86FF1F80E100E0876500400287FF1FFC86FF1F0187FF1F02230B4A10
:402E400011780B4313700A4A137803F0DF0313701022084B1A7038BD064B1B7813F0100F02D11022034B1A7038BD00BFFA86FF1F87650040F486FF1F1F4B1B78DBB2102BFF
:402E800033D11E4B1B7813F0100F30D102221C4B1A604000C0B229B140F001004922164B1A7002E04522144B1A70164B1870822273331A70FF22633B1A70002240331A7080
:402EC000114B1B7813F0FF0FFAD10C4B1B7813F0010FFAD0094B1B7803F00A030A2B08D11022054B1A700320704702207047012070470020704700BFF486FF1F676500407A
:402F000080E100E004650040146500400F4B1B7813F0040F17D052220D4B1A70FF22633B1A70002240331A700A4B1B7813F0FF0FFAD11022084B1A70044B1B7813F0210F5E
:402F4000FAD0002070470220704700BF676500407765004014650040F486FF1F164B1B7813F0040F26D0154B1870062273331A70FF22633B1A70002240331A70104B1B7809
:402F800013F0FF0FFAD146220E4B1A700A4B1B7813F0010FFAD0084B1B7813F0020F04D16022084B1A70002070476022054B1A70032070470220704767650040046500405C
:402FC00014650040F486FF1F044A137803F0FD03400000F0020018431070704700510040024A137843F080031370704771640040014B1870704700BF81640040014B187838
:40300000704700BF6164004008B50146014800F035FA08BD23640040024B186820F07F40704700BF4364004008B50146014800F025FA08BD03640040024A137843F010033F
:40304000137070477164004000F00300044B1A7802F0FC021A701A7810431870704700BF7164004008B501E0FFF7D6FFFFF7C6FF10F0080FF8D108BD10B50D4C2046FFF778
:40308000C3FF2046FFF7D0FF00F062F8094A137843F01003137000F05FF8FFF7CDFF0020FFF7D2FFFFF7DEFF0320FFF7A1FF10BDFFDC6D009164004008B5054B1B7823B9F0
:4030C000FFF7DAFF0122024B1A70FFF789FF08BDA485FF1F0122014B1A707047A585FF1F014B1B681864704708ED00E04001C0B2014B1870704700BF00E400E00122014B7E
:403100001A60704700E100E00122014B1A60704780E100E008B5FFF7F7FF0448FFF7E0FF0720FFF7E3FFFFF7E9FF08BDD5300000014B1870704700BF7364004000000000EA
:403140000230800803D000BF01380046FCD17047EFF3108072B6704780F31088704700BF10B500F09DF800F033F910BB012000F011F9072818D102210F4800F0A3F802289B
:403180000AD102E00120FEF767FE0C4B1B7813F0020FF7D0002409E0084B1B7813F0020FE9D04FF0FF3401E04FF0FF3400F036F900E00424204610BD0887FF1F22470040DD
:4031C00010B500F06DF800F003F9D0B900F042F90446072812D102E00120FEF73DFE0A4B1B7813F0020FF7D0074B1B7813F0020F04D0054B1B789B0800D1002400F00EF984
:4032000000E00424204610BD2247004008B5FFF7D7FF034610B9FFF7A3FF0346184608BD08B5FFF795FF0F4A137843F0080313701032137843F008031370C8220A4B1A70C8
:403240000A4A137843F0100313701032137843F010031370064B1B7813F0200FFAD0FFF77BFF08BDA043004001470040AC43004000470040054A137843F001031370034BB8
:403280001B7813F0020FFAD0704700BF02470040024A137803F0FE03137070470247004008B5FFF755FF064A137843F0080313701032137843F008031370FFF74DFF08BDD8
:4032C000A043004070B506460D4600240CE00120FEF7C2FD064B1B7813F0010FF7D0054B1B7833550134E4B2AC42F3D3204670BD2247004020470040114B1B7813F0020F74
:4033000019D010B40F4BB6241C70D5241C7002241C7002331B7813F0020F0ED1094B1870002304E0CC5C0748047001339BB29342F8D3072002E004207047092010BC7047AF
:40334000224700402047004030B4104C247814F0020F15D00E4CB6252570D8252570052525700234247814F0020F0BD1084C2070080A2070C9B2217022702370072002E089
:40338000042000E0092030BC704700BF22470040204700400C4B1B7813F0020F0FD00B4BB6221A70E1221A700E221A7002331B7813F0020F05D1054B1870072070470420C6
:4033C00070470920704700BF224700402047004010B5FFF7BDFE0F4B1B78A3B901220D4B1A700D4B1B6813F0010F0ED00A4A136823F00103136000BF00BF00BF0122054B8E
:403400005A60002402E0042400E00024FFF7A4FE204610BDA885FF1F0400084008B5FFF797FE0A4B00221A705B68012B0AD1084A136843F00103136000BF00BF00BF002255
:40344000024B5A60FFF788FE08BD00BFA885FF1F04000840074B1B7813F0020F08D0064BB6221A70E0221A700D221A7007207047042070472247004020470040CBB20370EC
:40348000C1F307234370C1F307418170704700BF81F0004102E000BF83F0004330B54FEA41044FEA430594EA050F08BF90EA020F1FBF54EA000C55EA020C7FEA645C7FEA40
:4034C000655C00F0E2804FEA5454D4EB5555B8BF6D420CDD2C4480EA020281EA030382EA000083EA010180EA020281EA0303362D88BF30BD11F0004F4FEA01314FF4801C26
:403500004CEA113102D0404261EB410113F0004F4FEA03334CEA133302D0524263EB430394EA050F00F0A780A4F10104D5F1200E0DDB02FA0EFC22FA05F2801841F10001F7
:4035400003FA0EF2801843FA05F359410EE0A5F120050EF1200E012A03FA0EFC28BF4CF0020C43FA05F3C01851EBE37101F0004507D54FF0000EDCF1000C7EEB00006EEB17
:403580000101B1F5801F1BD3B1F5001F0CD349085FEA30004FEA3C0C04F101044FEA445212F5800F80F09A80BCF1004F08BF5FEA500C50F1000041EB045141EA050130BDB6
:4035C0005FEA4C0C404141EB010111F4801FA4F10104E9D191F0000F04BF01460020B1FA81F308BF2033A3F10B03B3F120020CDA0C3208DD02F1140CC2F10C0201FA0CF054
:4036000021FA02F10CE002F11402D8BFC2F1200C01FA02F120FA0CFCDCBF41EA0C019040E41AA2BF01EB0451294330BD6FEA04041F3C1CDA0C340EDC04F11404C4F12002A5
:4036400020FA04F001FA02F340EA030021FA04F345EA030130BDC4F10C04C4F1200220FA02F001FA04F340EA0300294630BD21FA04F0294630BD94F0000F83F4801306BFFD
:4036800081F480110134013D4EE77FEA645C18BF7FEA655C29D094EA050F08BF90EA020F05D054EA000C04BF1946104630BD91EA030F1EBF0021002030BD5FEA545C05D16A
:4036C0004000494128BF41F0004130BD14F580043CBF01F5801130BD01F0004545F0FE4141F470014FF0000030BD7FEA645C1ABF194610467FEA655C1CBF0B46024650EAB3
:40370000013406BF52EA033591EA030F41F4002130BD00BF90F0000F04BF0021704730B54FF4806404F132044FF000054FF0000150E700BF90F0000F04BF0021704730B5A2
:403740004FF4806404F1320410F0004548BF40424FF000013EE700BF42004FEAE2014FEA31014FEA02701FBF12F07F4393F07F4F81F06051704792F0000F14BF93F07F4F10
:40378000704730B54FF4607401F0004521F0004120E700BF50EA010208BF704730B54FF000050AE050EA010208BF704730B511F0004502D5404261EB41014FF4806404F151
:4037C00032045FEA915C3FF4DCAE4FF003025FEADC0C18BF03325FEADC0C18BF033202EBDC02C2F1200300FA03FC20FA02F001FA03FE40EA0E0021FA02F11444C1E600BF3C
:4038000070B54FF0FF0C4CF4E06C1CEA11541DBF1CEA135594EA0C0F95EA0C0F00F0DEF82C4481EA030621EA4C5123EA4C5350EA013518BF52EA033541F4801143F480135C
:4038400038D0A0FB02CE4FF00005E1FB02E506F00042E0FB03E54FF00006E1FB03569CF0000F18BF4EF0010EA4F1FF04B6F5007F64F5407404D25FEA4E0E6D4146EB060665
:4038800042EAC62141EA55514FEAC52040EA5E504FEACE2EB4F1FD0C88BFBCF5E06F1ED8BEF1004F08BF5FEA500E50F1000041EB045170BD06F0004646EA010140EA020019
:4038C00081EA0301B4EB5C04C2BFD4EB0C0541EA045170BD41F480114FF0000E013C00F3AB8014F1360FDEBF002001F0004170BDC4F10004203C35DA0C341BDC04F1140420
:40390000C4F1200500FA05F320FA04F001FA05F240EA020001F0004221F0004110EBD37021FA04F642EB06015EEA430E08BF20EAD37070BDC4F10C04C4F1200500FA04F319
:4039400020FA05F001FA04F240EA020001F0004110EBD37041F100015EEA430E08BF20EAD37070BDC4F1200500FA05F24EEA020E20FA04F301FA05F243EA020321FA04F047
:4039800001F0004121FA04F220EA020000EBD3705EEA430E08BF20EAD37070BD94F0000F0FD101F00046400041EB010111F4801F08BF013CF7D041EA060195F0000F18BF8C
:4039C000704703F00046520043EB030313F4801F08BF013DF7D043EA0603704794EA0C0F0CEA135518BF95EA0C0F0CD050EA410618BF52EA4306D1D181EA030101F000418E
:403A00004FF0000070BD50EA410606BF1046194652EA430619D094EA0C0F02D150EA013613D195EA0C0F05D152EA03361CBF104619460AD181EA030101F0004141F0FE418F
:403A400041F470014FF0000070BD41F0FE4141F4780170BD70B54FF0FF0C4CF4E06C1CEA11541DBF1CEA135594EA0C0F95EA0C0F00F0A7F8A4EB050481EA030E52EA0335EF
:403A80004FEA013100F088804FEA03334FF0805545EA131343EA12634FEA022245EA111545EA10654FEA00260EF000419D4208BF964244F1FD0404F5407402D25B084FEA64
:403AC0003202B61A65EB03055B084FEA32024FF480104FF4002CB6EB020E75EB030E22BFB61A754640EA0C005B084FEA3202B6EB020E75EB030E22BFB61A754640EA5C00B0
:403B00005B084FEA3202B6EB020E75EB030E22BFB61A754640EA9C005B084FEA3202B6EB020E75EB030E22BFB61A754640EADC0055EA060E18D04FEA051545EA16754FEA7C
:403B400006164FEAC30343EA52734FEAC2025FEA1C1CC0D111F4801F0BD141EA00014FF000004FF0004CB6E711F4801F04BF01430020B4F1FD0C88BFBCF5E06F3FF6AFAEC4
:403B8000B5EB030C04BFB6EB020C5FEA500C50F1000041EB045170BD0EF0004E4EEA113114EB5C04C2BFD4EB0C0541EA045170BD41F480114FF0000E013C90E645EA060E24
:403BC0008DE60CEA135594EA0C0F08BF95EA0C0F3FF43BAF94EA0C0F0AD150EA01347FF434AF95EA0C0F7FF425AF104619462CE795EA0C0F06D152EA03353FF4FDAE1046E2
:403C0000194622E750EA410618BF52EA43067FF4C5AE50EA41047FF40DAF52EA43057FF4EBAE12E74FF0FF3C06E000BF4FF0010C02E000BF4FF0010C4DF804CD4FEA410C2E
:403C40007FEA6C5C4FEA430C18BF7FEA6C5C1BD001B050EA410C0CBF52EA430C91EA030F02BF90EA020F0020704710F1000F91EA030F58BF994208BF90422CBFD8176FEAFF
:403C8000E37040F0010070474FEA410C7FEA6C5C02D150EA013C07D14FEA430C7FEA6C5CD6D152EA033CD3D05DF8040B704700BF8446104662468C461946634600E000BF57
:403CC00001B5FFF7B7FF002848BF10F1000F01BD4DF808EDFFF7F4FF0CBF012000205DF808FB00BF4DF808EDFFF7EAFF34BF012000205DF808FB00BF4DF808EDFFF7E0FFAC
:403D000094BF012000205DF808FB00BF4DF808EDFFF7CEFF94BF012000205DF808FB00BF4DF808EDFFF7C4FF34BF012000205DF808FB00BF4A0011D212F5001211D20DD5E7
:403D40006FF47873B3EB62520ED44FEAC12343F0004343EA505323FA02F070474FF00000704750EA013002D14FF0FF3070474FF00000704780F0004002E000BF81F0004146
:403D800042001FBF5FEA410392EA030F7FEA226C7FEA236C6AD04FEA1262D2EB1363C1BFD218414048404140B8BF5B42192B88BF704710F0004F40F4000020F07F4018BF4C
:403DC000404211F0004F41F4000121F07F4118BF494292EA030F3FD0A2F1010241FA03FC10EB0C00C3F1200301FA03F100F0004302D5494260EB4000B0F5000F13D3B0F1F3
:403E0000807F06D340084FEA310102F10102FE2A51D2B1F1004F40EBC25008BF20F0010040EA03007047490040EB000010F4000FA2F10102EDD1B0FA80FCACF1080CB2EB7D
:403E40000C0200FA0CF0AABF00EBC25052421843BCBFD0401843704792F0000F81F4000106BF80F400000132013BB5E74FEA41037FEA226C18BF7FEA236C21D092EA030F3F
:403E800004D092F0000F08BF0846704790EA010F1CBF0020704712F07F4F04D1400028BF40F00040704712F100723CBF00F50000704700F0004343F0FE4040F400007047F7
:403EC0007FEA226216BF08467FEA23630146420206BF5FEA412390EA010F40F4800070474FF0000304E000BF10F0004348BF40425FEA000C08BF704743F0964301464FF0BB
:403F000000001CE050EA010208BF70474FF000030AE000BF50EA010208BF704711F0004302D5404261EB41015FEA010C02BF84460146002043F0B64308BFA3F18053A3F5BF
:403F40000003BCFA8CF2083AA3EBC25310DB01FA02FC634400FA02FCC2F12002BCF1004F20FA02F243EB020008BF20F00100704702F1200201FA02FCC2F1200250EA4C009B
:403F800021FA02F243EB020008BF20EADC7070474FF0FF0C1CEAD0521EBF1CEAD15392EA0C0F93EA0C0F6FD01A4480EA010C400218BF5FEA41211ED04FF0006343EA501051
:403FC00043EA5111A0FB01310CF00040B1F5000F3EBF490041EAD3715B0040EA010062F17F02FD2A1DD8B3F1004F40EBC25008BF20F00100704790F0000F0CF0004C08BFEC
:4040000049024CEA502040EA51207F3AC2BFD2F1FF0340EAC250704740F400004FF00003013A5DDC12F1190FDCBF00F000407047C2F10002410021FA02F1C2F1200200FA98
:4040400002FC5FEA310040F1000053EA4C0308BF20EADC70704792F0000F00F0004C02BF400010F4000F013AF9D040EA0C0093F0000F01F0004C02BF490011F4000F013BF3
:40408000F9D041EA0C018FE70CEAD15392EA0C0F18BF93EA0C0F0AD030F0004C18BF31F0004CD8D180EA010000F00040704790F0000F17BF90F0004F084691F0000F91F051
:4040C000004F14D092EA0C0F01D142020FD193EA0C0F03D14B0218BF084608D180EA010000F0004040F0FE4040F40000704740F0FE4040F4400070474FF0FF0C1CEAD0524A
:404100001EBF1CEAD15392EA0C0F93EA0C0F69D0A2EB030280EA010C49024FEA402037D04FF0805343EA111143EA10130CF000408B4238BF5B0042F17D024FF4000C8B4242
:4041400024BF5B1A40EA0C00B3EB510F24BFA3EB510340EA5C00B3EB910F24BFA3EB910340EA9C00B3EBD10F24BFA3EBD10340EADC001B0118BF5FEA1C1CE0D1FD2A3FF615
:4041800050AF8B4240EBC25008BF20F0010070470CF0004C4CEA50207F32C2BFD2F1FF0340EAC250704740F400004FF00003013A37E792F0000F00F0004C02BF400010F4EE
:4041C000000F013AF9D040EA0C0093F0000F01F0004C02BF490011F4000F013BF9D041EA0C0195E70CEAD15392EA0C0F08D142027FF47DAF93EA0C0F7FF470AF084676E78E
:4042000093EA0C0F04D14B023FF44CAF08466EE730F0004C18BF31F0004CCAD130F000427FF45CAF31F000437FF43CAF5FE700BF4FF0FF3C06E000BF4FF0010C02E000BFF5
:404240004FF0010C4DF804CD4FEA40024FEA41037FEA226C18BF7FEA236C11D001B052EA530C18BF90EA010F58BFB2EB030088BFC81738BF6FEAE17018BF40F00100704753
:404280007FEA226C02D15FEA402C05D17FEA236CE4D15FEA412CE1D05DF8040B704700BF844608466146FFE70FB5FFF7C9FF002848BF10F1000F0FBD4DF808EDFFF7F4FF66
:4042C0000CBF012000205DF808FB00BF4DF808EDFFF7EAFF34BF012000205DF808FB00BF4DF808EDFFF7E0FF94BF012000205DF808FB00BF4DF808EDFFF7D2FF94BF012008
:4043000000205DF808FB00BF4DF808EDFFF7C8FF34BF012000205DF808FB00BF42000ED2B2F1FE4F0BD34FF09E03B3EB126209D44FEA002343F0004323FA02F070474FF06E
:404340000000704712F1610F01D1420202D14FF0FF3070474FF00000704700BF014B1868704700BF5C85FF1F0E4B70B51E460E4C0025E41AA410A54204D056F825309847BF
:404380000135F8E701F0B0FA084B094C1E46E41AA4100025A54204D056F8253098470135F8E770BDF4580000F4580000F4580000FC58000010B5431E0A44914204D011F88F
:4043C000014B03F8014FF8E710BD03460244934202D003F8011BFAE7704700000EB400B54FF402719CB0ADF814106FF00041049107914FF6FF711DAB02900690084853F846
:40440000042BADF81610006802A9019300F06CF8029B00221A701CB05DF804EB03B070475C85FF1F034613F8012B002AFBD1181A013870472DE9F0478E6882469E420C46F0
:40444000914698463ED88A8912F4906F3AD02568096902236F1A656905EB450595FBF3F57B1C43449D4238BF1D4653050FD5294600F040FB064698B13A462169FFF79AFFC7
:40448000A38923F4906343F08003A38113E02A4600F08EFB064670B92169504600F0DEFA0C23CAF80030A3894FF0FF3043F04003A381BDE8F08726613E4426604646656161
:4044C000ED1BA560464528BF464649463246206800F0A8FAA36800209B1BA36023681E442660BDE8F08700002DE9F04F9DB003938B8980461C060D4616460DD50B695BB9D0
:40450000402100F0F7FA2860286118B90C23C8F80030CDE040236B610023099320238DF82930DFF89CB130238DF82A3037463C4614F8013B1BB9B7EB060910D003E0252B47
:40454000F9D02746F3E74B46324629464046FFF771FF013000F0A780099B4B4409933B78002B00F0A08000234FF0FF3204930793059206938DF853301A9301260522217832
:404580004E4800F041FA671C049B38B14B4A3C46801A06FA00F018430490EFE7D90644BF20228DF853201A0744BF2B228DF8532022782A2A03D0079A00210A200BE0039A0F
:4045C000111D12680391002A10DA524243F00200079204900BE027463B780134303B092B03D800FB02320121F5E701B107923B782E2B1ED17B782A2B0AD1039B02371A1D17
:404600001B680392002BB8BF4FF0FF33059310E0002319460593781C0A2407463A780130303A092A03D804FB01210123F5E703B1059103223978224800F0E6F940B1402375
:40464000CBEB000003FA00F0049B013718430490397806221B487E1C8DF8281000F0D4F988B1194B33B9039B073323F007030833039314E003AB00932A46144B04A94046FB
:40468000AFF3008007E003AB00932A460F4B04A9404600F093F8B0F1FF3F824603D0099B5344099342E7AB895B0601D4099801E04FF0FF301DB0BDE8F08F00BFB2580000AA
:4046C000B8580000BC58000000000000354400002DE9F04791461F460A698B6806469342B8BF1346C9F8003091F843200C46DDF8208012B10133C9F800302368990642BF86
:40470000D9F800300233C9F80030256815F0060510D104F1190A07E00123524639463046C04701301AD00135E368D9F800209B1A9D42F1DB94F843302268003318BF012379
:4047400092060FD5E118302081F843005A1C94F845102244023382F8431003E04FF0FF30BDE8F08704F1430239463046C0470130F4D02268D9F80050E36802F00602042A43
:4047800008BF5D1B2269A3680CBF25EAE57500259342C4BF9B1AED184FF000091A344D4509D00123224639463046C0470130D5D009F10109F3E70020BDE8F0872DE9F043F7
:4047C00017460A7E85B06E2A984606460C460C9B01F1430E00F0AE8011D8632A22D009D8002A00F0BB80582A40F0CA8081F84520834955E0642A1ED0692A1CD0C0E0732AD2
:4048000000F0B08009D86F2A2ED0702A40F0B8800A6842F020020A603EE0752A24D0782A3AD0ADE01A6801F14205111D1960136884F84230A8E021681A6811F0800F02D004
:40484000111D196008E011F0400F02F10401196002D0B2F9003000E01368002B3CDA2D225B4284F8432037E021681A6811F0800F02D0111D196007E011F0400F02F104017A
:40488000196001D0138800E01368227E5C496F2A14BF0A2208221BE078225A4984F845202268186812F0800F00F104051D6003D1550601D5038800E00368D00744BF42F09F
:4048C000200222601BB9226822F0200222601022002084F8430001E049490A226568002DA56008DB206820F0040020602BB9002D7DD175460CE0002B79D07546B3FBF2F08D
:4049000002FB1033CB5C05F8013D03460028F5D1082A0BD12368DA0708D5236962689A42DEBF302305F8013C05F1FF35C5EB0E0323612EE008681A6810F0800F496903D068
:40494000101D1860136808E010F0400F02F104001860136801D0198000E0196000232361754616E01A68111D1960156800216268284600F049F808B1401B6060636804E028
:4049800004F1420584F8422001232361002384F84330CDF800803B4603AA21463046FFF797FE013002D14FF0FF3026E023692A4639463046C0470130F5D023689B0710D5D0
:4049C000002504F1190907E001234A4639463046C0470130E7D00135E368039A9B1A9D42F2DBE068039B9842B8BF184605E00B7804F1420584F842308AE705B0BDE8F08318
:404A0000C3580000D458000010B5C9B202449042034605D01C7801308C42F8D1184610BD002010BD884210B501EB020301D8421E0BE09842FBD28118D21AD34204D013F881
:404A4000014D01F8014DF8E710BD994204D011F8014B02F8014FF8E710BD000038B50546002944D051F8043C0C1F002BB8BFE41800F0D4F81E4A1368114613B9636014603B
:404A800030E0A3420DD92268A018834201BF18685B681218226063600C6023E0A24203D813465A68002AF9D118681918A1420BD12168014458188242196013D11068526864
:404AC000014419605A600DE002D90C232B6009E021686018824201BF106852680918216062605C602846BDE8384000F098B838BDB485FF1F70B5CD1C25F0030508350C2D44
:404B000038BF0C25002D064601DBA94202D90C23336046E000F082F8234B1C681A462146A1B10B685B1B0ED40B2B03D90B60CC18CD501EE08C420BBF63684B681360636042
:404B400018BF0C4615E00C464968E9E7174C23681BB9304600F052F820602946304600F04DF8431C18D0C41C24F00304A0420DD12560304600F053F804F10B00231D20F0B0
:404B80000700C31A0ED05A42E25070BD211A304600F034F80130EBD10C233360304600F03EF8002070BD00BFB485FF1FB085FF1FF8B5074615460E4621B91146BDE8F840B3
:404BC000FFF798BF1AB9FFF749FF2846F8BD00F027F885420ED929463846FFF78BFF044650B131462A46FFF7E5FB31463846FFF735FF01E03046F8BD2046F8BD38B5064C7D
:404C00000023054608462360FDF778F8431C02D1236803B12B6038BD0C87FF1F7047704751F8040C0028BEBF091851F8043CC0180438704700000000496E697469616C691B
:404C40007A696E67000000000000803F0000803F0000803F0000803FCDCCCC3D0000803F00000040666666400000803F0000803F0000003F0000803F0000000000000000F1
:404C80000000003F0000803FCDCCCC3DCDCCCC3DCDCCCC3DCDCCCC3D00002040CDCCCC3DCDCCCC3DCDCCCC3DCDCCCC3DCDCCCC3DCDCCCC3DCDCCCC3DCDCCCC3DCDCCCC3D5C
:404CC000CDCCCC3DCDCCCC3D50726573732065616368206B657920616C6C207468652077617920646F776E20746F20636F6D706C657465207468652063616C696272617407
:404D0000696F6E0D0A000000507265737320616E642072656C65617365206B6579205B25692F25695D0D0A006C6F776573743A2025690D0A000000006D696E3A2025692C1D
:404D40000D0A6D61783A2025690D0A005761726E696E673A205374657073206C657373207468616E2025752E2575206D6D20617265206578706572696D656E74616C206173
:404D80006E64206D69676874206361757365206973737565732E0D0A000000004572726F723A2054726967676572206865696768742073657420666F722073776974636860
:404DC000205B25752F25755D20697320746F6F2068696768210D0A546865206D6178696D756D2068656967687420616C6C6F7765642069732025752E2575206D6D2E0D0A75
:404E0000000000004572726F723A20547269676765722068656967687473657420666F7220737769746368205B25752F25755D20697320746F6F206C6F77210D0A546865C8
:404E4000206D696E696D756D2068656967687420616C6C6F7765642069732025752E2575206D6D2E0D0A00004572726F723A205261706964207472696767657220646973F0
:404E800074616E636520697320746F6F2068696768210D0A546865206D6178696D756D2064697374616E636520616C6C6F7765642069732025752E2575206D6D2E0D0A0012
:404EC0004572726F723A20526170696420747269676765722064697374616E636520697320746F6F206C6F77210D0A546865206D696E696D756D2064697374616E636520FF
:404F0000616C6C6F7765642069732025752E2575206D6D2E0D0A00004572726F723A2043616C6962726174696F6E206B657920726F7720697320746F6F2068696768210DC3
:404F40000A546865206C617267657374206E756D62657220616C6C6F7765642069732025752E0D0A000000004572726F723A2043616C6962726174696F6E206B6579207281
:404F80006F772063616E2774206265206C657373207468616E2030210D0A00004572726F723A2043616C6962726174696F6E206B657920636F6C756D6E20697320746F6FBC
:404FC0002068696768210D0A546865206C617267657374206E756D62657220616C6C6F7765642069732025752E0D0A004572726F723A2043616C6962726174696F6E206B83
:40500000657920636F6C756D6E2063616E2774206265206C657373207468616E2030210D0A0000004572726F723A205468652063616C6962726174696F6E206B6579206DC3
:40504000757374206E6F742062652064697361626C6564210D0A00004572726F723A2054686520454550524F4D206973206E6F74206C6172676520656E6F75676820746F3E
:405080002073617665207468652064617461206F6620616C6C206B657973210D0A44697361626C652063616C6962726174696F6E206F7220726564756365207468652061CD
:4050C0006D6F756E74206F66206B6579732E0D0A000000004368616E67652074686520617070726F7072696174652073657474696E6720696E20636F6E6669672E68206137
:405100006E6420666C61736820746865206669726D7761726520616761696E2E0D0A00005072657373206B6579205B25692F25695D20746F2073746172742063616C696227
:40514000726174696F6E0D0A0000000052656C6561736520746865206B657920746F2073746172742063616C6962726174696E670D0A000052656C656173652074686520B6
:405180006B657920746F2073746172742063616C6962726174696F6E0D0A000048616C6C204566666563743A2025692C0D0A54656D70657261747572653A2025692E25694B
:4051C00020432C0D0A556C747261736F756E643A20256C752E256C7520636D0D0A00000048616C6C204566666563743A2025690D0A00000048616C6C204566666563743A28
:405200002025690D0A536572766F2076616C75653A2025690D0A000054656D70657261747572653A2025692E256920430D0A000054656D70657261747572653A2025692E0E
:40524000256920460D0A000054656D70657261747572653A2025692E2569204B0D0A000054656D7020566F6C746167653A202569206D560D0A000000556C747261736F75A6
:405280006E642074696D653A20256C752075730D0A000000556C747261736F756E642064697374616E63653A20256C752E256C7520636D0D0A00000041637475616C2064B9
:4052C000697374616E63653A20256C752E256C7520636D0D0A00000041637475616C2064697374616E63653A20256C752E256C7520696E0D0A0000004E6F7420696D706CC2
:40530000656D656E7465640D0A0000000021007F2200070000AED580A83FD300408D142000A1C8DA1281CFD9F1DB40A4A6AF000000000000003E5B4F5B3E3E6B4F6B3E1C2C
:405340003E7C3E1C183C7E3C181C577D571C1C5E7F5E1C00183C1800FFE7C3E7FF0018241800FFE7DBE7FF30483A060E2629792926407F050507407F05253F5A3CE73C5A3F
:405380007F3E1C1C08081C1C3E7F14227F22145F5F005F5F06097F017F006689956A606060606094A2FFA29408047E040810207E201008082A1C08081C2A08081E101010C7
:4053C000100C1E0C1E0C30383E3830060E3E0E06000000000000005F00000007000700147F147F14242A7F2A12231308646236495620500008070300001C224100004122DC
:405400001C002A1C7F1C2A08083E080800807030000808080808000060600020100804023E5149453E00427F400072494949462141494D331814127F1027454545393C4A05
:4054400049493141211109073649494936464949291E0000140000004034000000081422411414141414004122140802015909063E415D594E7C1211127C7F494949363EAD
:40548000414141227F4141413E7F494949417F090909013E414151737F0808087F00417F41002040413F017F081422417F404040407F021C027F7F0408107F3E4141413EE1
:4054C0007F090909063E4151215E7F09192946264949493203017F01033F4040403F1F2040201F3F4038403F631408146303047804036159494D43007F4141410204081052
:4055000020004141417F04020102044040404040000307080020545478407F284444383844444428384444287F385454541800087E090218A4A49C787F0804047800447D17
:4055400040002040403D007F1028440000417F40007C047804787C080404783844444438FC1824241818242418FC7C08040408485454542404043F44243C4040207C1C2038
:4055800040201C3C4030403C44281028444C9090907C4464544C4400083641000000770000004136080002010204023C2623263C1EA1A161123A4040207A3854545559211E
:4055C000555579412254547842215554784020545579400C1E5272123955555559395454545939555454580000457C410002457D420001457C407D1211127DF0282528F084
:405600007C545545002054547C547C0A097F4932494949323A4444443A324A4848303A4141217A3A42402078009DA0A07D3D4242423D3D4040403D3C24FF2424487E4943DE
:40564000662B2FFC2F2BFF0929F620C0887E090320545479410000447D413048484A32384040227A007A0A0A727D0D19317D2629292F28262929292630484D402038080893
:40568000080808080808382F10C8ACBA2F102834FA00007B000008142A142222142A1408AA005500AAAA55AA55AA000000FF00101010FF00141414FF001010FF00FF101015
:4056C000F010F0141414FC001414F700FF0000FF00FF1414F404FC141417101F10101F101F1414141F00101010F0000000001F101010101F10101010F010000000FF101016
:4057000010101010101010FF10000000FF140000FF00FF00001F10170000FC04F414141710171414F404F40000FF00F714141414141414F700F7141414171410101F101FE0
:40574000141414F4141010F010F000001F101F0000001F14000000FC140000F010F01010FF10FF141414FF141010101F00000000F010FFFFFFFFFFF0F0F0F0F0FFFFFF00E0
:4057800000000000FFFF0F0F0F0F0F3844443844FC4A4A4A347E02020606027E027E0263554941633844443C04407E201E2006027E020299A5E7A5991C2A492A1C4C720184
:4057C000724C304A4D4D303048784830BC625A463D3E494949007E0101017E2A2A2A2A2A44445F444440514A444040444A51400000FF0103E080FF000008086B6B08361295
:40580000362436060F090F06000018180000001010003040FF0101001F01011E00191D1712003C3C3C3C0000000000002D510040005B00402D510040005B00402D510040E6
:40584000005B00402D510040005B00400D510040005B0040010102020404080801100000035B0040035B004040200000405100403000F051004010000000014080000001DC
:405880000140000F80140140800700400140000A004C0140000200500140200080000140A00800488000001401402009004880004300232D302B2000686C4C006566674555
:4058C00046470030313233343536373839414243444546003031323334353637383961626364656600000000F8B500BFF8BC08BC9E4670474D000000791D0000F8B500BF49
:40590000F8BC08BC9E4670472900000020590000C880FF1F98040000B0010000000000000000000001290000E11D0000F91D0000111E0000D007D0074000000000000000A4
:405940000000000000000000000000000000000000000000000000000000000000000000000000000000000000000000000000000000000000000000000000000000000027
:4059800000000000000000000000000000000000000000000000000000000000000000000000000000000000000000000000000000000000000000000000000000000000E7
:4059C00000000000000000000000000000000000000000000000000000000000000000000000000000000000000000000000000000000000000000000000000000000000A7
:405A00000000000000000000000000000000000000000000000000000000000000000000000000000000000000000000000000000000000000000000000000000000000066
:405A40000000000000000000000000000000000000000000000000000000000000000000000000000000000000000000000000000000000000000000000000000000000026
:405A800000000000000000000000000000000000000000000000000000000000000000000000000000000000000000000000000000000000000000000000000000000000E6
:405AC00000000000000000000000000000000000000000000000000000000000000000000000000000000000000000000000000000000000000000000000000000000000A6
:405B00000000000000000000000000000000000000000000000000000000000000000000000000000000000000000000000000000000000000000000000000000000000065
:405B40000000000000000000000000000000000000000000000000000000000000000000000000000000000000000000000000000000000000000000000000000000000025
:405B800000000000000000000000000000000000000000000000000000000000000000000000000000000000000000000000000000000000000000000000000000000000E5
:405BC00000000000000000000000000000000000000000000000000000000000000000000000000000000000000000000000000000000000000000000000000000000000A5
:405C00000000000000000000000000000000000000000000000000000000000000000000000000000000000000000000000000000000000000000000000000000000000064
:405C40000000000000000000000000000000000000000000000000000000000000000000000000000000000000000000000000000000000000000000000000000000000024
:405C800000000000000000000000000000000000000000000000000000000000000000000000000000000000000000000000000000000000000000000000000000000000E4
:405CC00000000000000000000000000000000000000000000000000000000000000000000000000000000000000000000000000000000000000000000000000000000000A4
:405D00000000000000000000000000000000000000000000000000000000000000000000000000000000000000000000000000000000000000000000000000001087FF1FAE
:405D40000000E02EC05D00001800000000366E0101FFFF000000000000000000000000000000000000000000000000000000000000000000B0580000000000000000000034
:405D800000000000000000000000000000000000000000000000000000000000000000000000000000000000000000000000000000000000FC84FF1F000000000000000045
:405DC00000000000000000000000000000000000000000000000000000000000000000000000000000000000000000000000000000000000000000000000000000000000A3
:405E00000000000000000000000000000000000000000000000000000000000000000000000000000000000000000000000000000000000000000000000000000000000062
:405E40000000000000000000000000000000000000000000000000000000000000000000000000000000000000000000000000000000000000000000000000000000000022
:405E800000000000000000000000000000000000000000000000000000000000000000000000000000000000000000000000000000000000000000000000000000000000E2
:020000040003F7
:0200000480007A
:400000000352004004640040016500401400014034010140540201403D0301406B0401404B050140680601403F070140010B0140650C0140350D0140010F01401D1401403E
:40004000461501404816014049170140011B01400540014003410140044201400243014004440140054501400446014001470140074801400C490140014C0140024D0140C3
:400080000950014001510140104060836101260F3608810F8D0F24044060410249FF4AFF4BFF4DA04F0450185A045D025F01604062C06440654066C068C06AC06CC06EC057
:4000C000004002010410054007100E26166A1C401D401E242521264C27102C022E242F02350136183C903D023E184320461048044B104C804F10561057205D015E805F24F2
:4001000065026D306F057440750176427F02810AC0E0C2E0C4F0CA70CCE0CEF0D044D224D6F0D880DE10E001010F050F09030A0E0B0C0C0511051219130A160F170F1A0F86
:400140001B0F1C061E1022202603280F29052B0A2D032F0C301F3220330F3A02580459045C995F01809282608303840187028A088B018C048EE0900D945D96A298E29B01E8
:400180009E029F01A2FFA43DA6C2A704A801AC40AE1DB107B2FFBB02BE04C043C105C202C9FFCAFFCBFFCF01D018D201D301D610D804D904DA04DB04DC10DD99DF01E0401D
:4001C000E240E440E540E680E880EA80EC80EE8001880348053007010A800B190E6A1048120213081648170419041E50208021012202272029042D202E40304032103614AF
:40020000370139023B183C023D203E0840404120422048014A01680380408301904091109501961097049A419B059E289F20A080A130A214A406A508A601C0CFC2FFC47F11
:40024000CA32CCECCEE7D007D208030105FF060109A90B540F0411CC13131702191A1B601FB5214D22012392250429022DA52F4A300133FF3F0440434105420249FF4AFF6A
:400280004BFF4D834E034F015018580459045A045C025D095F016040624064406540668068806A806C806E808546861887A9880F89338B0C8D408F13900292019301950E75
:4002C000960F97309A0F9C079D2A9E109F54A180A204A356A801A9FFAA02B3FFB41FB808BA20BE04C013C105C202C5ECC620C80BC9FFCAFFCBFFCD83CE03CF01D018D280F3
:40030000D804D904DA04DB04DC19DD29DF01E040E240E440E540E680E880EA80EC80EE800008040406080E6A1080151017011B011C041D18202024102504260829882B480C
:400340002C402F0430483101321035823708388239083B183C803D083F904040412042204520462148014C024D014F045620774081018208870190409110924094909501D9
:4003800096A0971C9A099B019C409D989E209F08A0C3A120A215A40CA508A708A810AB40B608C064C2F0C458CAAFCCDFCE7FD077D218E408E81001400308054007180950D6
:4003C0000B020D0F110413081550170118011B201D8023402801293F2D402E022F1432013402353F37C0380839A03E043F40403445024605480549FF4AFF4BFF4C424DA00B
:400400004E7050085110580459045A045C125D015F016148624063486480654866806748800381408210830B84018606870189408A808B148C288D488E538F029002911F3A
:400440009201940895019623994F9C409D039E2B9F20A008A190A210A30BA40BA501A610A830A903AA03AC79AD42AE04AF09B1E0B31FB407B6F8B740B982BA20BF41D8046B
:40048000D904DC11DF01002401800240031008400B900F08108611081760180419801C081D08210123112705284029892B892C802D422F04308A325034043501368037281D
:4004C00039453A413B103D083E803F12450847014F085680810482018402850493089482950896A097109B409C409D8A9F08A050A104A40CA708C00FC24DC4CFCABFCCFF22
:40050000CEFFD0C0E40801020304063009010A200B141032120C140715011618170C1B181E0D240726382B082D182F05303C32033303351C380839083A023B203E044003A5
:40054000470449FF4A074BFF4C404D204EF04F055008580459045A045C335D035F01604061A8624063208423850C860487118A088C0A8D1C8E248F02930394239509960C3B
:40058000971099149C10A120A225A510A70CA803A910AA24B020B11FB20FB320B410BA08BE11BF04C031C102C5EBC70CC813C9FFCAFFCBFFCEF0CF44D00CD401D804D90425
:4005C000DA04DB04DC33DD33DF01E6C0EA40EB0200440208060407100A120D400E900F0210881320170419241A901C401D081EC0220524042608271429052B082E402F0811
:4006000030203209371438443E103F024004414042104508482049014C804F0250085604570859015A885B208920C067C2B5C42ACA37CC67CEAAD04ED60FE00180048218FB
:400640008409860489018B0A8E2D9501960D97029E0DA404A610A704A804AA0BB01CB202B304B401B508B620B703BA02BE10D804D904DC11DF0100A0010A05050701084054
:400680000A620E2110011145131015081710190A1A021B281C041D051E012108221023282690271029182B422F20318832123704394D3B103F20410142504320508052029B
:4006C000831084108760910B92109310940496209780980199109B059C409D029F08A040A180A342A480A690A708AC80AE08B408B701C0BFC2ADC46FCA4FCC4FCE2FD00734
:40070000EC1000030204071008270A400B040C020E050F081001120E1427164017021890191E1B011F1E2006211E220124812608271E28902F10300F3270331E3680370113
:4007400038883A023E043F04580459045C115F0180C082078401880389018C088E079003943A960498FF9C01A010A207A405A678A801AC22AE05B080B301B47FB802BE10CE
:40078000D2F6D420D604D804D904DB04DC11DD10DF0100800104038805800680070808800A880B100E400F181009110113081509172019101B021E501F81210422042640DD
:4007C00027212C212D802F803650370839103C803D483E803F90584859025B106004634165086608691470497180720887409103928093119482954C9620978099809B14A5
:400800009D089F28A060A104A304A488A680A788A820AB04C0DFC27FC47FCAD0CC70CE74D60FD80DEC10338036408380CC30E6200308A640C0405680A640B708D4409E803B
:40084000A6407C017E018001DE055D028A019602D601E004450885029D02D001A50825108640A640AA80C820E640EA80122016407780822086408780B510C430DE20E010EC
:40088000E240E480A508B508EC08000E0101080609010A060B010E0810021A02000F000000000010100A0004040040010E008019000000180200410A00006F02FE000000CF
:4008C00000003E00080040010000100100187F0001180E043002C001000000000000015060030000001020000AFFFFFF00AF0F04180093000300040004040404999200050C
:400900004000C0004040C000C000C000C000C0000000000000000000000000000000000004323808003F400000188006142202184704080016010000001C002200220100C9
:40094000102A061047062000160000401001041E3C00401F8060030000080200000000004300000002000DB024FF7FFF42A070000C00000000000000040404001101000189
:400980000009400930090000000000000000000000000000000000000000000000000000020004020200000001000000800000808300830000000000000B0B000000000085
:4009C0000040400040000F00000F0F0000000000030018010000000000000000000000000000000000000000000000000000000000000000000000000000000000000000EE
:400A000000000000000000000000000000000000000000000000000000000000000000000000000000000000000000000000000000000000000000000000000000000000B6
:400A40000000000000000000000000000000000000000000000000000000000000000000000000000000000000000000000000000000000000000000000000000000000076
:400A80000000000000000000000000000000000000000000000000000000000000000000000000000000000000000000000000000000000000000000000000000000000036
:400AC00000000000000000000000000000000000000000000000000000000000000000000000000000000000000000000000000000000000000000000000000000000000F6
:0200000490006A
:0400000000004005B7
:0200000490105A
:04000000BC90ACAF55
:0200000490303A
:02000000D882A4
:0200000490402A
:4000000000000000000000000000000000000000000000000000000000000000000000000000000000000000000000000000000000000000000000000000000000000000C0
:400040000000000000000000000000000000000000000000000000000000000000000000000000000000000000000000000000000000000000000000000000000000000080
:400080000000000000000000000000000000000000000000000000000000000000000000000000000000000000000000000000000000000000000000000000000000000040
:4000C0000000000000000000000000000000000000000000000000000000000000000000000000000000000000000000000000000000000000000000000000000000000000
:0200000490501A
:0C00000000012E16106900012E39E8EBFB
:00000001FF